{
  "_format": "hh-sol-artifact-1",
  "contractName": "DTwitter",
  "sourceName": "contracts/DTwitter.sol",
  "abi": [
    {
      "inputs": [
        {
          "internalType": "uint256",
          "name": "_price",
          "type": "uint256"
        }
      ],
      "stateMutability": "payable",
      "type": "constructor"
    },
    {
      "inputs": [],
      "name": "DeletedTweet",
      "type": "error"
    },
    {
      "inputs": [],
      "name": "InvalidID",
      "type": "error"
    },
    {
      "inputs": [],
      "name": "InvalidMessage",
      "type": "error"
    },
    {
      "inputs": [],
      "name": "InvalidPrice",
      "type": "error"
    },
    {
      "inputs": [],
      "name": "SenderCooldown",
      "type": "error"
    },
    {
      "inputs": [],
      "name": "Unauthorized",
      "type": "error"
    },
    {
      "anonymous": false,
      "inputs": [
        {
          "indexed": true,
          "internalType": "uint256",
          "name": "id",
          "type": "uint256"
        },
        {
          "indexed": true,
          "internalType": "address",
          "name": "from",
          "type": "address"
        },
        {
          "indexed": false,
          "internalType": "uint256",
          "name": "timestamp",
          "type": "uint256"
        },
        {
          "indexed": false,
          "internalType": "string",
          "name": "message",
          "type": "string"
        },
        {
          "indexed": false,
          "internalType": "bool",
          "name": "deleted",
          "type": "bool"
        },
        {
          "indexed": false,
          "internalType": "uint256",
          "name": "replyID",
          "type": "uint256"
        },
        {
          "indexed": false,
          "internalType": "uint256",
          "name": "retweetID",
          "type": "uint256"
        }
      ],
      "name": "DeleteTweet",
      "type": "event"
    },
    {
      "anonymous": false,
      "inputs": [
        {
          "indexed": true,
          "internalType": "uint256",
          "name": "id",
          "type": "uint256"
        },
        {
          "indexed": true,
          "internalType": "address",
          "name": "from",
          "type": "address"
        },
        {
          "indexed": false,
          "internalType": "uint256",
          "name": "timestamp",
          "type": "uint256"
        },
        {
          "indexed": false,
          "internalType": "string",
          "name": "message",
          "type": "string"
        },
        {
          "indexed": false,
          "internalType": "bool",
          "name": "deleted",
          "type": "bool"
        },
        {
          "indexed": false,
          "internalType": "uint256",
          "name": "replyID",
          "type": "uint256"
        },
        {
          "indexed": false,
          "internalType": "uint256",
          "name": "retweetID",
          "type": "uint256"
        }
      ],
      "name": "EditTweet",
      "type": "event"
    },
    {
      "anonymous": false,
      "inputs": [
        {
          "indexed": true,
          "internalType": "uint256",
          "name": "id",
          "type": "uint256"
        },
        {
          "indexed": true,
          "internalType": "address",
          "name": "from",
          "type": "address"
        },
        {
          "indexed": false,
          "internalType": "uint256",
          "name": "timestamp",
          "type": "uint256"
        },
        {
          "indexed": false,
          "internalType": "string",
          "name": "message",
          "type": "string"
        },
        {
          "indexed": false,
          "internalType": "bool",
          "name": "deleted",
          "type": "bool"
        },
        {
          "indexed": false,
          "internalType": "uint256",
          "name": "replyID",
          "type": "uint256"
        },
        {
          "indexed": false,
          "internalType": "uint256",
          "name": "retweetID",
          "type": "uint256"
        }
      ],
      "name": "NewTweet",
      "type": "event"
    },
    {
      "anonymous": false,
      "inputs": [
        {
          "indexed": true,
          "internalType": "address",
          "name": "previousOwner",
          "type": "address"
        },
        {
          "indexed": true,
          "internalType": "address",
          "name": "newOwner",
          "type": "address"
        }
      ],
      "name": "OwnershipTransferred",
      "type": "event"
    },
    {
      "anonymous": false,
      "inputs": [
        {
          "indexed": false,
          "internalType": "address",
          "name": "account",
          "type": "address"
        }
      ],
      "name": "Paused",
      "type": "event"
    },
    {
      "anonymous": false,
      "inputs": [
        {
          "indexed": false,
          "internalType": "address",
          "name": "account",
          "type": "address"
        }
      ],
      "name": "Unpaused",
      "type": "event"
    },
    {
      "inputs": [
        {
          "internalType": "uint256",
          "name": "_id",
          "type": "uint256"
        }
      ],
      "name": "deleteTweet",
      "outputs": [],
      "stateMutability": "nonpayable",
      "type": "function"
    },
    {
      "inputs": [
        {
          "internalType": "uint256",
          "name": "_id",
          "type": "uint256"
        },
        {
          "internalType": "string",
          "name": "_message",
          "type": "string"
        }
      ],
      "name": "editTweet",
      "outputs": [],
      "stateMutability": "nonpayable",
      "type": "function"
    },
    {
      "inputs": [],
      "name": "getBalance",
      "outputs": [
        {
          "internalType": "uint256",
          "name": "",
          "type": "uint256"
        }
      ],
      "stateMutability": "view",
      "type": "function"
    },
    {
      "inputs": [],
      "name": "getOwner",
      "outputs": [
        {
          "internalType": "address",
          "name": "",
          "type": "address"
        }
      ],
      "stateMutability": "view",
      "type": "function"
    },
    {
      "inputs": [],
      "name": "getPrice",
      "outputs": [
        {
          "internalType": "uint256",
          "name": "",
          "type": "uint256"
        }
      ],
      "stateMutability": "view",
      "type": "function"
    },
    {
      "inputs": [],
      "name": "getTotalTweets",
      "outputs": [
        {
          "internalType": "uint256",
          "name": "",
          "type": "uint256"
        }
      ],
      "stateMutability": "view",
      "type": "function"
    },
    {
      "inputs": [],
      "name": "getTweets",
      "outputs": [
        {
          "components": [
            {
              "internalType": "address",
              "name": "from",
              "type": "address"
            },
            {
              "internalType": "uint256",
              "name": "timestamp",
              "type": "uint256"
            },
            {
              "internalType": "string",
              "name": "message",
              "type": "string"
            },
            {
              "internalType": "bool",
              "name": "deleted",
              "type": "bool"
            },
            {
              "internalType": "uint256",
              "name": "replyID",
              "type": "uint256"
            },
            {
              "internalType": "uint256",
              "name": "retweetID",
              "type": "uint256"
            }
          ],
          "internalType": "struct DTwitter.Tweet[]",
          "name": "",
          "type": "tuple[]"
        }
      ],
      "stateMutability": "view",
      "type": "function"
    },
    {
      "inputs": [],
      "name": "id",
      "outputs": [
        {
          "internalType": "uint256",
          "name": "",
          "type": "uint256"
        }
      ],
      "stateMutability": "view",
      "type": "function"
    },
    {
      "inputs": [
        {
          "internalType": "address",
          "name": "",
          "type": "address"
        }
      ],
      "name": "lastTweetedAt",
      "outputs": [
        {
          "internalType": "uint256",
          "name": "",
          "type": "uint256"
        }
      ],
      "stateMutability": "view",
      "type": "function"
    },
    {
      "inputs": [
        {
          "internalType": "string",
          "name": "_message",
          "type": "string"
        },
        {
          "internalType": "uint256",
          "name": "_replyID",
          "type": "uint256"
        },
        {
          "internalType": "uint256",
          "name": "_retweetID",
          "type": "uint256"
        }
      ],
      "name": "newTweet",
      "outputs": [],
      "stateMutability": "payable",
      "type": "function"
    },
    {
      "inputs": [],
      "name": "owner",
      "outputs": [
        {
          "internalType": "address",
          "name": "",
          "type": "address"
        }
      ],
      "stateMutability": "view",
      "type": "function"
    },
    {
      "inputs": [],
      "name": "paused",
      "outputs": [
        {
          "internalType": "bool",
          "name": "",
          "type": "bool"
        }
      ],
      "stateMutability": "view",
      "type": "function"
    },
    {
      "inputs": [],
      "name": "price",
      "outputs": [
        {
          "internalType": "uint256",
          "name": "",
          "type": "uint256"
        }
      ],
      "stateMutability": "view",
      "type": "function"
    },
    {
      "inputs": [],
      "name": "renounceOwnership",
      "outputs": [],
      "stateMutability": "nonpayable",
      "type": "function"
    },
    {
      "inputs": [
        {
          "internalType": "address",
          "name": "newOwner",
          "type": "address"
        }
      ],
      "name": "transferOwnership",
      "outputs": [],
      "stateMutability": "nonpayable",
      "type": "function"
    },
    {
      "inputs": [
        {
          "internalType": "uint256",
          "name": "",
          "type": "uint256"
        }
      ],
      "name": "tweetIDs",
      "outputs": [
        {
          "internalType": "uint256",
          "name": "",
          "type": "uint256"
        }
      ],
      "stateMutability": "view",
      "type": "function"
    },
    {
      "inputs": [
        {
          "internalType": "uint256",
          "name": "",
          "type": "uint256"
        }
      ],
      "name": "tweets",
      "outputs": [
        {
          "internalType": "address",
          "name": "from",
          "type": "address"
        },
        {
          "internalType": "uint256",
          "name": "timestamp",
          "type": "uint256"
        },
        {
          "internalType": "string",
          "name": "message",
          "type": "string"
        },
        {
          "internalType": "bool",
          "name": "deleted",
          "type": "bool"
        },
        {
          "internalType": "uint256",
          "name": "replyID",
          "type": "uint256"
        },
        {
          "internalType": "uint256",
          "name": "retweetID",
          "type": "uint256"
        }
      ],
      "stateMutability": "view",
      "type": "function"
    }
  ],
  "bytecode": "0x6080604052600160025560405162001ed038038062001ed083398181016040528101906200002e919062000182565b6200004e620000426200007660201b60201c565b6200007e60201b60201c565b60008060146101000a81548160ff0219169083151502179055508060018190555050620001b4565b600033905090565b60008060009054906101000a900473ffffffffffffffffffffffffffffffffffffffff169050816000806101000a81548173ffffffffffffffffffffffffffffffffffffffff021916908373ffffffffffffffffffffffffffffffffffffffff1602179055508173ffffffffffffffffffffffffffffffffffffffff168173ffffffffffffffffffffffffffffffffffffffff167f8be0079c531659141344cd1fd0a4f28419497f9722a3daafe3b4186f6b6457e060405160405180910390a35050565b600080fd5b6000819050919050565b6200015c8162000147565b81146200016857600080fd5b50565b6000815190506200017c8162000151565b92915050565b6000602082840312156200019b576200019a62000142565b5b6000620001ab848285016200016b565b91505092915050565b611d0c80620001c46000396000f3fe6080604052600436106100fe5760003560e01c8063a035b1fe11610095578063d490db2711610064578063d490db2714610315578063e8d857b014610331578063eae9e13514610373578063f2fde38b1461039c578063fc86741f146103c5576100fe565b8063a035b1fe14610245578063ac61d8d714610270578063af640d0f146102ad578063b281395b146102d8576100fe565b8063893d20e8116100d1578063893d20e8146101995780638da5cb5b146101c457806393f11c27146101ef57806398d5fdca1461021a576100fe565b806312065fe0146101035780635775912a1461012e5780635c975abb14610157578063715018a614610182575b600080fd5b34801561010f57600080fd5b506101186103f0565b604051610125919061126d565b60405180910390f35b34801561013a57600080fd5b50610155600480360381019061015091906112c8565b6103f8565b005b34801561016357600080fd5b5061016c610634565b6040516101799190611310565b60405180910390f35b34801561018e57600080fd5b5061019761064a565b005b3480156101a557600080fd5b506101ae61065e565b6040516101bb919061136c565b60405180910390f35b3480156101d057600080fd5b506101d961066d565b6040516101e6919061136c565b60405180910390f35b3480156101fb57600080fd5b50610204610696565b604051610211919061126d565b60405180910390f35b34801561022657600080fd5b5061022f6106a3565b60405161023c919061126d565b60405180910390f35b34801561025157600080fd5b5061025a6106ad565b604051610267919061126d565b60405180910390f35b34801561027c57600080fd5b50610297600480360381019061029291906112c8565b6106b3565b6040516102a4919061126d565b60405180910390f35b3480156102b957600080fd5b506102c26106d7565b6040516102cf919061126d565b60405180910390f35b3480156102e457600080fd5b506102ff60048036038101906102fa91906113b3565b6106dd565b60405161030c919061126d565b60405180910390f35b61032f600480360381019061032a9190611526565b6106f5565b005b34801561033d57600080fd5b50610358600480360381019061035391906112c8565b6109df565b60405161036a9695949392919061161d565b60405180910390f35b34801561037f57600080fd5b5061039a60048036038101906103959190611685565b610ad0565b005b3480156103a857600080fd5b506103c360048036038101906103be91906113b3565b610d46565b005b3480156103d157600080fd5b506103da610dca565b6040516103e791906118a3565b60405180910390f35b600047905090565b610400610fcf565b600060046000838152602001908152602001600020600101541415610451576040517ff5d2101e00000000000000000000000000000000000000000000000000000000815260040160405180910390fd5b6004600082815260200190815260200160002060030160009054906101000a900460ff16156104ac576040517f29de661200000000000000000000000000000000000000000000000000000000815260040160405180910390fd5b3373ffffffffffffffffffffffffffffffffffffffff166004600083815260200190815260200160002060000160009054906101000a900473ffffffffffffffffffffffffffffffffffffffff1673ffffffffffffffffffffffffffffffffffffffff1614610547576040517f82b4290000000000000000000000000000000000000000000000000000000000815260040160405180910390fd5b60016004600083815260200190815260200160002060030160006101000a81548160ff0219169083151502179055503373ffffffffffffffffffffffffffffffffffffffff16817fd1a7ebaecd97d90fc93690e7580a45f9046c0756d5ab34bd0cfce28ae58f114f42600460008681526020019081526020016000206002016004600087815260200190815260200160002060030160009054906101000a900460ff16600460008881526020019081526020016000206004015460046000898152602001908152602001600020600501546040516106299594939291906119bb565b60405180910390a350565b60008060149054906101000a900460ff16905090565b610652611019565b61065c6000611097565b565b600061066861066d565b905090565b60008060009054906101000a900473ffffffffffffffffffffffffffffffffffffffff16905090565b6000600380549050905090565b6000600154905090565b60015481565b600381815481106106c357600080fd5b906000526020600020016000915090505481565b60025481565b60056020528060005260406000206000915090505481565b6106fd610fcf565b600154341015610738576040517ebfc92100000000000000000000000000000000000000000000000000000000815260040160405180910390fd5b61011883511115610775576040517f6eca2e4b00000000000000000000000000000000000000000000000000000000815260040160405180910390fd5b42603c600560003373ffffffffffffffffffffffffffffffffffffffff1673ffffffffffffffffffffffffffffffffffffffff168152602001908152602001600020546107c29190611a44565b106107f9576040517fa3ce25cb00000000000000000000000000000000000000000000000000000000815260040160405180910390fd5b42600560003373ffffffffffffffffffffffffffffffffffffffff1673ffffffffffffffffffffffffffffffffffffffff168152602001908152602001600020819055506040518060c001604052803373ffffffffffffffffffffffffffffffffffffffff1681526020014281526020018481526020016000151581526020018381526020018281525060046000600254815260200190815260200160002060008201518160000160006101000a81548173ffffffffffffffffffffffffffffffffffffffff021916908373ffffffffffffffffffffffffffffffffffffffff160217905550602082015181600101556040820151816002019080519060200190610905929190611163565b5060608201518160030160006101000a81548160ff0219169083151502179055506080820151816004015560a08201518160050155905050600360025490806001815401808255809150506001900390600052602060002001600090919091909150553373ffffffffffffffffffffffffffffffffffffffff166002547f95ddbe40e589682de7b309cb88ed7a199bbb6bda251729fab039d408457e15a64286600087876040516109ba959493929190611a9a565b60405180910390a3600260008154809291906109d590611af4565b9190505550505050565b60046020528060005260406000206000915090508060000160009054906101000a900473ffffffffffffffffffffffffffffffffffffffff1690806001015490806002018054610a2e906118f4565b80601f0160208091040260200160405190810160405280929190818152602001828054610a5a906118f4565b8015610aa75780601f10610a7c57610100808354040283529160200191610aa7565b820191906000526020600020905b815481529060010190602001808311610a8a57829003601f168201915b5050505050908060030160009054906101000a900460ff16908060040154908060050154905086565b610ad8610fcf565b600060046000848152602001908152602001600020600101541415610b29576040517ff5d2101e00000000000000000000000000000000000000000000000000000000815260040160405180910390fd5b6004600083815260200190815260200160002060030160009054906101000a900460ff1615610b84576040517f29de661200000000000000000000000000000000000000000000000000000000815260040160405180910390fd5b3373ffffffffffffffffffffffffffffffffffffffff166004600084815260200190815260200160002060000160009054906101000a900473ffffffffffffffffffffffffffffffffffffffff1673ffffffffffffffffffffffffffffffffffffffff1614610c1f576040517f82b4290000000000000000000000000000000000000000000000000000000000815260040160405180910390fd5b61011881511115610c5c576040517f6eca2e4b00000000000000000000000000000000000000000000000000000000815260040160405180910390fd5b80600460008481526020019081526020016000206002019080519060200190610c86929190611163565b503373ffffffffffffffffffffffffffffffffffffffff16827f1dbbd33e7a06a3d6b3eb06987927cc5c71764c24bc2e8f56d90d2505c0c8606042600460008781526020019081526020016000206002016004600088815260200190815260200160002060030160009054906101000a900460ff166004600089815260200190815260200160002060040154600460008a815260200190815260200160002060050154604051610d3a9594939291906119bb565b60405180910390a35050565b610d4e611019565b600073ffffffffffffffffffffffffffffffffffffffff168173ffffffffffffffffffffffffffffffffffffffff161415610dbe576040517f08c379a0000000000000000000000000000000000000000000000000000000008152600401610db590611baf565b60405180910390fd5b610dc781611097565b50565b6060600060038054905067ffffffffffffffff811115610ded57610dec6113fb565b5b604051908082528060200260200182016040528015610e2657816020015b610e136111e9565b815260200190600190039081610e0b5790505b50905060005b600380549050811015610fc7576004600060038381548110610e5157610e50611bcf565b5b906000526020600020015481526020019081526020016000206040518060c00160405290816000820160009054906101000a900473ffffffffffffffffffffffffffffffffffffffff1673ffffffffffffffffffffffffffffffffffffffff1673ffffffffffffffffffffffffffffffffffffffff16815260200160018201548152602001600282018054610ee5906118f4565b80601f0160208091040260200160405190810160405280929190818152602001828054610f11906118f4565b8015610f5e5780601f10610f3357610100808354040283529160200191610f5e565b820191906000526020600020905b815481529060010190602001808311610f4157829003601f168201915b505050505081526020016003820160009054906101000a900460ff1615151515815260200160048201548152602001600582015481525050828281518110610fa957610fa8611bcf565b5b60200260200101819052508080610fbf90611af4565b915050610e2c565b508091505090565b610fd7610634565b15611017576040517f08c379a000000000000000000000000000000000000000000000000000000000815260040161100e90611c4a565b60405180910390fd5b565b61102161115b565b73ffffffffffffffffffffffffffffffffffffffff1661103f61066d565b73ffffffffffffffffffffffffffffffffffffffff1614611095576040517f08c379a000000000000000000000000000000000000000000000000000000000815260040161108c90611cb6565b60405180910390fd5b565b60008060009054906101000a900473ffffffffffffffffffffffffffffffffffffffff169050816000806101000a81548173ffffffffffffffffffffffffffffffffffffffff021916908373ffffffffffffffffffffffffffffffffffffffff1602179055508173ffffffffffffffffffffffffffffffffffffffff168173ffffffffffffffffffffffffffffffffffffffff167f8be0079c531659141344cd1fd0a4f28419497f9722a3daafe3b4186f6b6457e060405160405180910390a35050565b600033905090565b82805461116f906118f4565b90600052602060002090601f01602090048101928261119157600085556111d8565b82601f106111aa57805160ff19168380011785556111d8565b828001600101855582156111d8579182015b828111156111d75782518255916020019190600101906111bc565b5b5090506111e59190611237565b5090565b6040518060c00160405280600073ffffffffffffffffffffffffffffffffffffffff168152602001600081526020016060815260200160001515815260200160008152602001600081525090565b5b80821115611250576000816000905550600101611238565b5090565b6000819050919050565b61126781611254565b82525050565b6000602082019050611282600083018461125e565b92915050565b6000604051905090565b600080fd5b600080fd5b6112a581611254565b81146112b057600080fd5b50565b6000813590506112c28161129c565b92915050565b6000602082840312156112de576112dd611292565b5b60006112ec848285016112b3565b91505092915050565b60008115159050919050565b61130a816112f5565b82525050565b60006020820190506113256000830184611301565b92915050565b600073ffffffffffffffffffffffffffffffffffffffff82169050919050565b60006113568261132b565b9050919050565b6113668161134b565b82525050565b6000602082019050611381600083018461135d565b92915050565b6113908161134b565b811461139b57600080fd5b50565b6000813590506113ad81611387565b92915050565b6000602082840312156113c9576113c8611292565b5b60006113d78482850161139e565b91505092915050565b600080fd5b600080fd5b6000601f19601f8301169050919050565b7f4e487b7100000000000000000000000000000000000000000000000000000000600052604160045260246000fd5b611433826113ea565b810181811067ffffffffffffffff82111715611452576114516113fb565b5b80604052505050565b6000611465611288565b9050611471828261142a565b919050565b600067ffffffffffffffff821115611491576114906113fb565b5b61149a826113ea565b9050602081019050919050565b82818337600083830152505050565b60006114c96114c484611476565b61145b565b9050828152602081018484840111156114e5576114e46113e5565b5b6114f08482856114a7565b509392505050565b600082601f83011261150d5761150c6113e0565b5b813561151d8482602086016114b6565b91505092915050565b60008060006060848603121561153f5761153e611292565b5b600084013567ffffffffffffffff81111561155d5761155c611297565b5b611569868287016114f8565b935050602061157a868287016112b3565b925050604061158b868287016112b3565b9150509250925092565b600081519050919050565b600082825260208201905092915050565b60005b838110156115cf5780820151818401526020810190506115b4565b838111156115de576000848401525b50505050565b60006115ef82611595565b6115f981856115a0565b93506116098185602086016115b1565b611612816113ea565b840191505092915050565b600060c082019050611632600083018961135d565b61163f602083018861125e565b818103604083015261165181876115e4565b90506116606060830186611301565b61166d608083018561125e565b61167a60a083018461125e565b979650505050505050565b6000806040838503121561169c5761169b611292565b5b60006116aa858286016112b3565b925050602083013567ffffffffffffffff8111156116cb576116ca611297565b5b6116d7858286016114f8565b9150509250929050565b600081519050919050565b600082825260208201905092915050565b6000819050602082019050919050565b6117168161134b565b82525050565b61172581611254565b82525050565b600082825260208201905092915050565b600061174782611595565b611751818561172b565b93506117618185602086016115b1565b61176a816113ea565b840191505092915050565b61177e816112f5565b82525050565b600060c08301600083015161179c600086018261170d565b5060208301516117af602086018261171c565b50604083015184820360408601526117c7828261173c565b91505060608301516117dc6060860182611775565b5060808301516117ef608086018261171c565b5060a083015161180260a086018261171c565b508091505092915050565b60006118198383611784565b905092915050565b6000602082019050919050565b6000611839826116e1565b61184381856116ec565b935083602082028501611855856116fd565b8060005b858110156118915784840389528151611872858261180d565b945061187d83611821565b925060208a01995050600181019050611859565b50829750879550505050505092915050565b600060208201905081810360008301526118bd818461182e565b905092915050565b7f4e487b7100000000000000000000000000000000000000000000000000000000600052602260045260246000fd5b6000600282049050600182168061190c57607f821691505b602082108114156119205761191f6118c5565b5b50919050565b60008190508160005260206000209050919050565b60008154611948816118f4565b61195281866115a0565b9450600182166000811461196d576001811461197f576119b2565b60ff19831686526020860193506119b2565b61198885611926565b60005b838110156119aa5781548189015260018201915060208101905061198b565b808801955050505b50505092915050565b600060a0820190506119d0600083018861125e565b81810360208301526119e2818761193b565b90506119f16040830186611301565b6119fe606083018561125e565b611a0b608083018461125e565b9695505050505050565b7f4e487b7100000000000000000000000000000000000000000000000000000000600052601160045260246000fd5b6000611a4f82611254565b9150611a5a83611254565b9250827fffffffffffffffffffffffffffffffffffffffffffffffffffffffffffffffff03821115611a8f57611a8e611a15565b5b828201905092915050565b600060a082019050611aaf600083018861125e565b8181036020830152611ac181876115e4565b9050611ad06040830186611301565b611add606083018561125e565b611aea608083018461125e565b9695505050505050565b6000611aff82611254565b91507fffffffffffffffffffffffffffffffffffffffffffffffffffffffffffffffff821415611b3257611b31611a15565b5b600182019050919050565b7f4f776e61626c653a206e6577206f776e657220697320746865207a65726f206160008201527f6464726573730000000000000000000000000000000000000000000000000000602082015250565b6000611b996026836115a0565b9150611ba482611b3d565b604082019050919050565b60006020820190508181036000830152611bc881611b8c565b9050919050565b7f4e487b7100000000000000000000000000000000000000000000000000000000600052603260045260246000fd5b7f5061757361626c653a2070617573656400000000000000000000000000000000600082015250565b6000611c346010836115a0565b9150611c3f82611bfe565b602082019050919050565b60006020820190508181036000830152611c6381611c27565b9050919050565b7f4f776e61626c653a2063616c6c6572206973206e6f7420746865206f776e6572600082015250565b6000611ca06020836115a0565b9150611cab82611c6a565b602082019050919050565b60006020820190508181036000830152611ccf81611c93565b905091905056fea264697066735822122004efdb0c31f86869483ebce8a1ebcf41d5108d9dab00c018f23dbf9acd40d02764736f6c63430008090033",
  "linkReferences": {},
  "deployedLinkReferences": {}
}