{
  "_format": "hh-sol-artifact-1",
  "contractName": "DTwitter",
  "sourceName": "contracts/DTwitter.sol",
  "abi": [
    {
      "inputs": [
        {
          "internalType": "uint256",
          "name": "_price",
          "type": "uint256"
        }
      ],
      "stateMutability": "payable",
      "type": "constructor"
    },
    {
      "inputs": [],
      "name": "DeletedTweet",
      "type": "error"
    },
    {
      "inputs": [],
      "name": "InvalidID",
      "type": "error"
    },
    {
      "inputs": [],
      "name": "InvalidMessage",
      "type": "error"
    },
    {
      "inputs": [],
      "name": "InvalidPrice",
      "type": "error"
    },
    {
      "inputs": [],
      "name": "SenderCooldown",
      "type": "error"
    },
    {
      "inputs": [],
      "name": "Unauthorized",
      "type": "error"
    },
    {
      "anonymous": false,
      "inputs": [
        {
          "indexed": false,
          "internalType": "uint256",
          "name": "id",
          "type": "uint256"
        }
      ],
      "name": "ClearTweets",
      "type": "event"
    },
    {
      "anonymous": false,
      "inputs": [
        {
          "indexed": true,
          "internalType": "uint256",
          "name": "id",
          "type": "uint256"
        },
        {
          "indexed": true,
          "internalType": "address",
          "name": "from",
          "type": "address"
        },
        {
          "indexed": false,
          "internalType": "uint256",
          "name": "timestamp",
          "type": "uint256"
        },
        {
          "indexed": false,
          "internalType": "string",
          "name": "message",
          "type": "string"
        },
        {
          "indexed": false,
          "internalType": "bool",
          "name": "deleted",
          "type": "bool"
        },
        {
          "indexed": false,
          "internalType": "uint256",
          "name": "replyID",
          "type": "uint256"
        },
        {
          "indexed": false,
          "internalType": "uint256",
          "name": "retweetID",
          "type": "uint256"
        }
      ],
      "name": "DeleteTweet",
      "type": "event"
    },
    {
      "anonymous": false,
      "inputs": [
        {
          "indexed": true,
          "internalType": "uint256",
          "name": "id",
          "type": "uint256"
        },
        {
          "indexed": true,
          "internalType": "address",
          "name": "from",
          "type": "address"
        },
        {
          "indexed": false,
          "internalType": "uint256",
          "name": "timestamp",
          "type": "uint256"
        },
        {
          "indexed": false,
          "internalType": "string",
          "name": "message",
          "type": "string"
        },
        {
          "indexed": false,
          "internalType": "bool",
          "name": "deleted",
          "type": "bool"
        },
        {
          "indexed": false,
          "internalType": "uint256",
          "name": "replyID",
          "type": "uint256"
        },
        {
          "indexed": false,
          "internalType": "uint256",
          "name": "retweetID",
          "type": "uint256"
        }
      ],
      "name": "EditTweet",
      "type": "event"
    },
    {
      "anonymous": false,
      "inputs": [
        {
          "indexed": true,
          "internalType": "uint256",
          "name": "id",
          "type": "uint256"
        },
        {
          "indexed": true,
          "internalType": "address",
          "name": "from",
          "type": "address"
        },
        {
          "indexed": false,
          "internalType": "uint256",
          "name": "timestamp",
          "type": "uint256"
        },
        {
          "indexed": false,
          "internalType": "string",
          "name": "message",
          "type": "string"
        },
        {
          "indexed": false,
          "internalType": "bool",
          "name": "deleted",
          "type": "bool"
        },
        {
          "indexed": false,
          "internalType": "uint256",
          "name": "replyID",
          "type": "uint256"
        },
        {
          "indexed": false,
          "internalType": "uint256",
          "name": "retweetID",
          "type": "uint256"
        }
      ],
      "name": "NewTweet",
      "type": "event"
    },
    {
      "anonymous": false,
      "inputs": [
        {
          "indexed": true,
          "internalType": "address",
          "name": "previousOwner",
          "type": "address"
        },
        {
          "indexed": true,
          "internalType": "address",
          "name": "newOwner",
          "type": "address"
        }
      ],
      "name": "OwnershipTransferred",
      "type": "event"
    },
    {
      "anonymous": false,
      "inputs": [
        {
          "indexed": false,
          "internalType": "address",
          "name": "account",
          "type": "address"
        }
      ],
      "name": "Paused",
      "type": "event"
    },
    {
      "anonymous": false,
      "inputs": [
        {
          "indexed": false,
          "internalType": "address",
          "name": "account",
          "type": "address"
        }
      ],
      "name": "Unpaused",
      "type": "event"
    },
    {
      "inputs": [],
      "name": "clear",
      "outputs": [],
      "stateMutability": "nonpayable",
      "type": "function"
    },
    {
      "inputs": [
        {
          "internalType": "uint256",
          "name": "_id",
          "type": "uint256"
        }
      ],
      "name": "deleteTweet",
      "outputs": [],
      "stateMutability": "nonpayable",
      "type": "function"
    },
    {
      "inputs": [
        {
          "internalType": "uint256",
          "name": "_id",
          "type": "uint256"
        },
        {
          "internalType": "string",
          "name": "_message",
          "type": "string"
        }
      ],
      "name": "editTweet",
      "outputs": [],
      "stateMutability": "nonpayable",
      "type": "function"
    },
    {
      "inputs": [],
      "name": "getBalance",
      "outputs": [
        {
          "internalType": "uint256",
          "name": "",
          "type": "uint256"
        }
      ],
      "stateMutability": "view",
      "type": "function"
    },
    {
      "inputs": [],
      "name": "getOwner",
      "outputs": [
        {
          "internalType": "address",
          "name": "",
          "type": "address"
        }
      ],
      "stateMutability": "view",
      "type": "function"
    },
    {
      "inputs": [],
      "name": "getPrice",
      "outputs": [
        {
          "internalType": "uint256",
          "name": "",
          "type": "uint256"
        }
      ],
      "stateMutability": "view",
      "type": "function"
    },
    {
      "inputs": [],
      "name": "getTotalTweets",
      "outputs": [
        {
          "internalType": "uint256",
          "name": "",
          "type": "uint256"
        }
      ],
      "stateMutability": "view",
      "type": "function"
    },
    {
      "inputs": [],
      "name": "getTweets",
      "outputs": [
        {
          "components": [
            {
              "internalType": "address",
              "name": "from",
              "type": "address"
            },
            {
              "internalType": "uint256",
              "name": "timestamp",
              "type": "uint256"
            },
            {
              "internalType": "string",
              "name": "message",
              "type": "string"
            },
            {
              "internalType": "bool",
              "name": "deleted",
              "type": "bool"
            },
            {
              "internalType": "uint256",
              "name": "replyID",
              "type": "uint256"
            },
            {
              "internalType": "uint256",
              "name": "retweetID",
              "type": "uint256"
            }
          ],
          "internalType": "struct DTwitter.Tweet[]",
          "name": "",
          "type": "tuple[]"
        }
      ],
      "stateMutability": "view",
      "type": "function"
    },
    {
      "inputs": [],
      "name": "id",
      "outputs": [
        {
          "internalType": "uint256",
          "name": "",
          "type": "uint256"
        }
      ],
      "stateMutability": "view",
      "type": "function"
    },
    {
      "inputs": [
        {
          "internalType": "address",
          "name": "",
          "type": "address"
        }
      ],
      "name": "lastTweetedAt",
      "outputs": [
        {
          "internalType": "uint256",
          "name": "",
          "type": "uint256"
        }
      ],
      "stateMutability": "view",
      "type": "function"
    },
    {
      "inputs": [
        {
          "internalType": "string",
          "name": "_message",
          "type": "string"
        },
        {
          "internalType": "uint256",
          "name": "_replyID",
          "type": "uint256"
        },
        {
          "internalType": "uint256",
          "name": "_retweetID",
          "type": "uint256"
        }
      ],
      "name": "newTweet",
      "outputs": [],
      "stateMutability": "payable",
      "type": "function"
    },
    {
      "inputs": [],
      "name": "owner",
      "outputs": [
        {
          "internalType": "address",
          "name": "",
          "type": "address"
        }
      ],
      "stateMutability": "view",
      "type": "function"
    },
    {
      "inputs": [],
      "name": "paused",
      "outputs": [
        {
          "internalType": "bool",
          "name": "",
          "type": "bool"
        }
      ],
      "stateMutability": "view",
      "type": "function"
    },
    {
      "inputs": [],
      "name": "price",
      "outputs": [
        {
          "internalType": "uint256",
          "name": "",
          "type": "uint256"
        }
      ],
      "stateMutability": "view",
      "type": "function"
    },
    {
      "inputs": [],
      "name": "renounceOwnership",
      "outputs": [],
      "stateMutability": "nonpayable",
      "type": "function"
    },
    {
      "inputs": [
        {
          "internalType": "address",
          "name": "newOwner",
          "type": "address"
        }
      ],
      "name": "transferOwnership",
      "outputs": [],
      "stateMutability": "nonpayable",
      "type": "function"
    },
    {
      "inputs": [
        {
          "internalType": "uint256",
          "name": "",
          "type": "uint256"
        }
      ],
      "name": "tweetIDs",
      "outputs": [
        {
          "internalType": "uint256",
          "name": "",
          "type": "uint256"
        }
      ],
      "stateMutability": "view",
      "type": "function"
    },
    {
      "inputs": [
        {
          "internalType": "uint256",
          "name": "",
          "type": "uint256"
        }
      ],
      "name": "tweets",
      "outputs": [
        {
          "internalType": "address",
          "name": "from",
          "type": "address"
        },
        {
          "internalType": "uint256",
          "name": "timestamp",
          "type": "uint256"
        },
        {
          "internalType": "string",
          "name": "message",
          "type": "string"
        },
        {
          "internalType": "bool",
          "name": "deleted",
          "type": "bool"
        },
        {
          "internalType": "uint256",
          "name": "replyID",
          "type": "uint256"
        },
        {
          "internalType": "uint256",
          "name": "retweetID",
          "type": "uint256"
        }
      ],
      "stateMutability": "view",
      "type": "function"
    }
  ],
  "bytecode": "0x60806040526001600255604051620020673803806200206783398181016040528101906200002e919062000182565b6200004e620000426200007660201b60201c565b6200007e60201b60201c565b60008060146101000a81548160ff0219169083151502179055508060018190555050620001b4565b600033905090565b60008060009054906101000a900473ffffffffffffffffffffffffffffffffffffffff169050816000806101000a81548173ffffffffffffffffffffffffffffffffffffffff021916908373ffffffffffffffffffffffffffffffffffffffff1602179055508173ffffffffffffffffffffffffffffffffffffffff168173ffffffffffffffffffffffffffffffffffffffff167f8be0079c531659141344cd1fd0a4f28419497f9722a3daafe3b4186f6b6457e060405160405180910390a35050565b600080fd5b6000819050919050565b6200015c8162000147565b81146200016857600080fd5b50565b6000815190506200017c8162000151565b92915050565b6000602082840312156200019b576200019a62000142565b5b6000620001ab848285016200016b565b91505092915050565b611ea380620001c46000396000f3fe6080604052600436106101095760003560e01c8063a035b1fe11610095578063d490db2711610064578063d490db2714610337578063e8d857b014610353578063eae9e13514610395578063f2fde38b146103be578063fc86741f146103e757610109565b8063a035b1fe14610267578063ac61d8d714610292578063af640d0f146102cf578063b281395b146102fa57610109565b8063715018a6116100dc578063715018a6146101a4578063893d20e8146101bb5780638da5cb5b146101e657806393f11c271461021157806398d5fdca1461023c57610109565b806312065fe01461010e57806352efea6e146101395780635775912a146101505780635c975abb14610179575b600080fd5b34801561011a57600080fd5b50610123610412565b6040516101309190611404565b60405180910390f35b34801561014557600080fd5b5061014e61041a565b005b34801561015c57600080fd5b506101776004803603810190610172919061145f565b610516565b005b34801561018557600080fd5b5061018e61075a565b60405161019b91906114a7565b60405180910390f35b3480156101b057600080fd5b506101b9610770565b005b3480156101c757600080fd5b506101d0610784565b6040516101dd9190611503565b60405180910390f35b3480156101f257600080fd5b506101fb610793565b6040516102089190611503565b60405180910390f35b34801561021d57600080fd5b506102266107bc565b6040516102339190611404565b60405180910390f35b34801561024857600080fd5b506102516107c9565b60405161025e9190611404565b60405180910390f35b34801561027357600080fd5b5061027c6107d3565b6040516102899190611404565b60405180910390f35b34801561029e57600080fd5b506102b960048036038101906102b4919061145f565b6107d9565b6040516102c69190611404565b60405180910390f35b3480156102db57600080fd5b506102e46107fd565b6040516102f19190611404565b60405180910390f35b34801561030657600080fd5b50610321600480360381019061031c919061154a565b610803565b60405161032e9190611404565b60405180910390f35b610351600480360381019061034c91906116bd565b61081b565b005b34801561035f57600080fd5b5061037a6004803603810190610375919061145f565b610b0d565b60405161038c969594939291906117b4565b60405180910390f35b3480156103a157600080fd5b506103bc60048036038101906103b7919061181c565b610bfe565b005b3480156103ca57600080fd5b506103e560048036038101906103e0919061154a565b610e7c565b005b3480156103f357600080fd5b506103fc610f00565b6040516104099190611a3a565b60405180910390f35b600047905090565b610422611105565b6000600254905060005b6003805490508110156104c55760046000828152602001908152602001600020600080820160006101000a81549073ffffffffffffffffffffffffffffffffffffffff0219169055600182016000905560028201600061048c9190611299565b6003820160006101000a81549060ff021916905560048201600090556005820160009055505080806104bd90611a8b565b91505061042c565b50600360006104d491906112d9565b60016002819055507fae292c2f970a00a1ee119ec6476c14d3a9cc6a21522fd6816ea794aa7b2a8d318160405161050b9190611404565b60405180910390a150565b61051e611105565b610526611183565b600060046000838152602001908152602001600020600101541415610577576040517ff5d2101e00000000000000000000000000000000000000000000000000000000815260040160405180910390fd5b6004600082815260200190815260200160002060030160009054906101000a900460ff16156105d2576040517f29de661200000000000000000000000000000000000000000000000000000000815260040160405180910390fd5b3373ffffffffffffffffffffffffffffffffffffffff166004600083815260200190815260200160002060000160009054906101000a900473ffffffffffffffffffffffffffffffffffffffff1673ffffffffffffffffffffffffffffffffffffffff161461066d576040517f82b4290000000000000000000000000000000000000000000000000000000000815260040160405180910390fd5b60016004600083815260200190815260200160002060030160006101000a81548160ff0219169083151502179055503373ffffffffffffffffffffffffffffffffffffffff16817fd1a7ebaecd97d90fc93690e7580a45f9046c0756d5ab34bd0cfce28ae58f114f42600460008681526020019081526020016000206002016004600087815260200190815260200160002060030160009054906101000a900460ff166004600088815260200190815260200160002060040154600460008981526020019081526020016000206005015460405161074f959493929190611bca565b60405180910390a350565b60008060149054906101000a900460ff16905090565b610778611105565b61078260006111cd565b565b600061078e610793565b905090565b60008060009054906101000a900473ffffffffffffffffffffffffffffffffffffffff16905090565b6000600380549050905090565b6000600154905090565b60015481565b600381815481106107e957600080fd5b906000526020600020016000915090505481565b60025481565b60056020528060005260406000206000915090505481565b610823611105565b61082b611183565b600154341015610866576040517ebfc92100000000000000000000000000000000000000000000000000000000815260040160405180910390fd5b610118835111156108a3576040517f6eca2e4b00000000000000000000000000000000000000000000000000000000815260040160405180910390fd5b42603c600560003373ffffffffffffffffffffffffffffffffffffffff1673ffffffffffffffffffffffffffffffffffffffff168152602001908152602001600020546108f09190611c24565b10610927576040517fa3ce25cb00000000000000000000000000000000000000000000000000000000815260040160405180910390fd5b42600560003373ffffffffffffffffffffffffffffffffffffffff1673ffffffffffffffffffffffffffffffffffffffff168152602001908152602001600020819055506040518060c001604052803373ffffffffffffffffffffffffffffffffffffffff1681526020014281526020018481526020016000151581526020018381526020018281525060046000600254815260200190815260200160002060008201518160000160006101000a81548173ffffffffffffffffffffffffffffffffffffffff021916908373ffffffffffffffffffffffffffffffffffffffff160217905550602082015181600101556040820151816002019080519060200190610a339291906112fa565b5060608201518160030160006101000a81548160ff0219169083151502179055506080820151816004015560a08201518160050155905050600360025490806001815401808255809150506001900390600052602060002001600090919091909150553373ffffffffffffffffffffffffffffffffffffffff166002547f95ddbe40e589682de7b309cb88ed7a199bbb6bda251729fab039d408457e15a6428660008787604051610ae8959493929190611c7a565b60405180910390a360026000815480929190610b0390611a8b565b9190505550505050565b60046020528060005260406000206000915090508060000160009054906101000a900473ffffffffffffffffffffffffffffffffffffffff1690806001015490806002018054610b5c90611b03565b80601f0160208091040260200160405190810160405280929190818152602001828054610b8890611b03565b8015610bd55780601f10610baa57610100808354040283529160200191610bd5565b820191906000526020600020905b815481529060010190602001808311610bb857829003601f168201915b5050505050908060030160009054906101000a900460ff16908060040154908060050154905086565b610c06611105565b610c0e611183565b600060046000848152602001908152602001600020600101541415610c5f576040517ff5d2101e00000000000000000000000000000000000000000000000000000000815260040160405180910390fd5b6004600083815260200190815260200160002060030160009054906101000a900460ff1615610cba576040517f29de661200000000000000000000000000000000000000000000000000000000815260040160405180910390fd5b3373ffffffffffffffffffffffffffffffffffffffff166004600084815260200190815260200160002060000160009054906101000a900473ffffffffffffffffffffffffffffffffffffffff1673ffffffffffffffffffffffffffffffffffffffff1614610d55576040517f82b4290000000000000000000000000000000000000000000000000000000000815260040160405180910390fd5b61011881511115610d92576040517f6eca2e4b00000000000000000000000000000000000000000000000000000000815260040160405180910390fd5b80600460008481526020019081526020016000206002019080519060200190610dbc9291906112fa565b503373ffffffffffffffffffffffffffffffffffffffff16827f1dbbd33e7a06a3d6b3eb06987927cc5c71764c24bc2e8f56d90d2505c0c8606042600460008781526020019081526020016000206002016004600088815260200190815260200160002060030160009054906101000a900460ff166004600089815260200190815260200160002060040154600460008a815260200190815260200160002060050154604051610e70959493929190611bca565b60405180910390a35050565b610e84611105565b600073ffffffffffffffffffffffffffffffffffffffff168173ffffffffffffffffffffffffffffffffffffffff161415610ef4576040517f08c379a0000000000000000000000000000000000000000000000000000000008152600401610eeb90611d46565b60405180910390fd5b610efd816111cd565b50565b6060600060038054905067ffffffffffffffff811115610f2357610f22611592565b5b604051908082528060200260200182016040528015610f5c57816020015b610f49611380565b815260200190600190039081610f415790505b50905060005b6003805490508110156110fd576004600060038381548110610f8757610f86611d66565b5b906000526020600020015481526020019081526020016000206040518060c00160405290816000820160009054906101000a900473ffffffffffffffffffffffffffffffffffffffff1673ffffffffffffffffffffffffffffffffffffffff1673ffffffffffffffffffffffffffffffffffffffff1681526020016001820154815260200160028201805461101b90611b03565b80601f016020809104026020016040519081016040528092919081815260200182805461104790611b03565b80156110945780601f1061106957610100808354040283529160200191611094565b820191906000526020600020905b81548152906001019060200180831161107757829003601f168201915b505050505081526020016003820160009054906101000a900460ff16151515158152602001600482015481526020016005820154815250508282815181106110df576110de611d66565b5b602002602001018190525080806110f590611a8b565b915050610f62565b508091505090565b61110d611291565b73ffffffffffffffffffffffffffffffffffffffff1661112b610793565b73ffffffffffffffffffffffffffffffffffffffff1614611181576040517f08c379a000000000000000000000000000000000000000000000000000000000815260040161117890611de1565b60405180910390fd5b565b61118b61075a565b156111cb576040517f08c379a00000000000000000000000000000000000000000000000000000000081526004016111c290611e4d565b60405180910390fd5b565b60008060009054906101000a900473ffffffffffffffffffffffffffffffffffffffff169050816000806101000a81548173ffffffffffffffffffffffffffffffffffffffff021916908373ffffffffffffffffffffffffffffffffffffffff1602179055508173ffffffffffffffffffffffffffffffffffffffff168173ffffffffffffffffffffffffffffffffffffffff167f8be0079c531659141344cd1fd0a4f28419497f9722a3daafe3b4186f6b6457e060405160405180910390a35050565b600033905090565b5080546112a590611b03565b6000825580601f106112b757506112d6565b601f0160209004906000526020600020908101906112d591906113ce565b5b50565b50805460008255906000526020600020908101906112f791906113ce565b50565b82805461130690611b03565b90600052602060002090601f016020900481019282611328576000855561136f565b82601f1061134157805160ff191683800117855561136f565b8280016001018555821561136f579182015b8281111561136e578251825591602001919060010190611353565b5b50905061137c91906113ce565b5090565b6040518060c00160405280600073ffffffffffffffffffffffffffffffffffffffff168152602001600081526020016060815260200160001515815260200160008152602001600081525090565b5b808211156113e75760008160009055506001016113cf565b5090565b6000819050919050565b6113fe816113eb565b82525050565b600060208201905061141960008301846113f5565b92915050565b6000604051905090565b600080fd5b600080fd5b61143c816113eb565b811461144757600080fd5b50565b60008135905061145981611433565b92915050565b60006020828403121561147557611474611429565b5b60006114838482850161144a565b91505092915050565b60008115159050919050565b6114a18161148c565b82525050565b60006020820190506114bc6000830184611498565b92915050565b600073ffffffffffffffffffffffffffffffffffffffff82169050919050565b60006114ed826114c2565b9050919050565b6114fd816114e2565b82525050565b600060208201905061151860008301846114f4565b92915050565b611527816114e2565b811461153257600080fd5b50565b6000813590506115448161151e565b92915050565b6000602082840312156115605761155f611429565b5b600061156e84828501611535565b91505092915050565b600080fd5b600080fd5b6000601f19601f8301169050919050565b7f4e487b7100000000000000000000000000000000000000000000000000000000600052604160045260246000fd5b6115ca82611581565b810181811067ffffffffffffffff821117156115e9576115e8611592565b5b80604052505050565b60006115fc61141f565b905061160882826115c1565b919050565b600067ffffffffffffffff82111561162857611627611592565b5b61163182611581565b9050602081019050919050565b82818337600083830152505050565b600061166061165b8461160d565b6115f2565b90508281526020810184848401111561167c5761167b61157c565b5b61168784828561163e565b509392505050565b600082601f8301126116a4576116a3611577565b5b81356116b484826020860161164d565b91505092915050565b6000806000606084860312156116d6576116d5611429565b5b600084013567ffffffffffffffff8111156116f4576116f361142e565b5b6117008682870161168f565b93505060206117118682870161144a565b92505060406117228682870161144a565b9150509250925092565b600081519050919050565b600082825260208201905092915050565b60005b8381101561176657808201518184015260208101905061174b565b83811115611775576000848401525b50505050565b60006117868261172c565b6117908185611737565b93506117a0818560208601611748565b6117a981611581565b840191505092915050565b600060c0820190506117c960008301896114f4565b6117d660208301886113f5565b81810360408301526117e8818761177b565b90506117f76060830186611498565b61180460808301856113f5565b61181160a08301846113f5565b979650505050505050565b6000806040838503121561183357611832611429565b5b60006118418582860161144a565b925050602083013567ffffffffffffffff8111156118625761186161142e565b5b61186e8582860161168f565b9150509250929050565b600081519050919050565b600082825260208201905092915050565b6000819050602082019050919050565b6118ad816114e2565b82525050565b6118bc816113eb565b82525050565b600082825260208201905092915050565b60006118de8261172c565b6118e881856118c2565b93506118f8818560208601611748565b61190181611581565b840191505092915050565b6119158161148c565b82525050565b600060c08301600083015161193360008601826118a4565b50602083015161194660208601826118b3565b506040830151848203604086015261195e82826118d3565b9150506060830151611973606086018261190c565b50608083015161198660808601826118b3565b5060a083015161199960a08601826118b3565b508091505092915050565b60006119b0838361191b565b905092915050565b6000602082019050919050565b60006119d082611878565b6119da8185611883565b9350836020820285016119ec85611894565b8060005b85811015611a285784840389528151611a0985826119a4565b9450611a14836119b8565b925060208a019950506001810190506119f0565b50829750879550505050505092915050565b60006020820190508181036000830152611a5481846119c5565b905092915050565b7f4e487b7100000000000000000000000000000000000000000000000000000000600052601160045260246000fd5b6000611a96826113eb565b91507fffffffffffffffffffffffffffffffffffffffffffffffffffffffffffffffff821415611ac957611ac8611a5c565b5b600182019050919050565b7f4e487b7100000000000000000000000000000000000000000000000000000000600052602260045260246000fd5b60006002820490506001821680611b1b57607f821691505b60208210811415611b2f57611b2e611ad4565b5b50919050565b60008190508160005260206000209050919050565b60008154611b5781611b03565b611b618186611737565b94506001821660008114611b7c5760018114611b8e57611bc1565b60ff1983168652602086019350611bc1565b611b9785611b35565b60005b83811015611bb957815481890152600182019150602081019050611b9a565b808801955050505b50505092915050565b600060a082019050611bdf60008301886113f5565b8181036020830152611bf18187611b4a565b9050611c006040830186611498565b611c0d60608301856113f5565b611c1a60808301846113f5565b9695505050505050565b6000611c2f826113eb565b9150611c3a836113eb565b9250827fffffffffffffffffffffffffffffffffffffffffffffffffffffffffffffffff03821115611c6f57611c6e611a5c565b5b828201905092915050565b600060a082019050611c8f60008301886113f5565b8181036020830152611ca1818761177b565b9050611cb06040830186611498565b611cbd60608301856113f5565b611cca60808301846113f5565b9695505050505050565b7f4f776e61626c653a206e6577206f776e657220697320746865207a65726f206160008201527f6464726573730000000000000000000000000000000000000000000000000000602082015250565b6000611d30602683611737565b9150611d3b82611cd4565b604082019050919050565b60006020820190508181036000830152611d5f81611d23565b9050919050565b7f4e487b7100000000000000000000000000000000000000000000000000000000600052603260045260246000fd5b7f4f776e61626c653a2063616c6c6572206973206e6f7420746865206f776e6572600082015250565b6000611dcb602083611737565b9150611dd682611d95565b602082019050919050565b60006020820190508181036000830152611dfa81611dbe565b9050919050565b7f5061757361626c653a2070617573656400000000000000000000000000000000600082015250565b6000611e37601083611737565b9150611e4282611e01565b602082019050919050565b60006020820190508181036000830152611e6681611e2a565b905091905056fea2646970667358221220d7b7a854e0f0fdf110711b6437bba877464818f0750cc8bd0238deed05993ef864736f6c63430008090033",
  "linkReferences": {},
  "deployedLinkReferences": {}
}