{
  "_format": "hh-sol-artifact-1",
  "contractName": "DTwitter",
  "sourceName": "contracts/DTwitter.sol",
  "abi": [
    {
      "inputs": [
        {
          "internalType": "uint256",
          "name": "_price",
          "type": "uint256"
        }
      ],
      "stateMutability": "payable",
      "type": "constructor"
    },
    {
      "inputs": [],
      "name": "DeletedTweet",
      "type": "error"
    },
    {
      "inputs": [],
      "name": "InvalidID",
      "type": "error"
    },
    {
      "inputs": [],
      "name": "InvalidMessage",
      "type": "error"
    },
    {
      "inputs": [],
      "name": "InvalidPrice",
      "type": "error"
    },
    {
      "inputs": [],
      "name": "SenderCooldown",
      "type": "error"
    },
    {
      "inputs": [],
      "name": "Unauthorized",
      "type": "error"
    },
    {
      "anonymous": false,
      "inputs": [
        {
          "indexed": true,
          "internalType": "uint256",
          "name": "id",
          "type": "uint256"
        },
        {
          "indexed": true,
          "internalType": "address",
          "name": "from",
          "type": "address"
        },
        {
          "indexed": false,
          "internalType": "uint256",
          "name": "timestamp",
          "type": "uint256"
        },
        {
          "indexed": false,
          "internalType": "string",
          "name": "message",
          "type": "string"
        },
        {
          "indexed": false,
          "internalType": "bool",
          "name": "deleted",
          "type": "bool"
        },
        {
          "indexed": false,
          "internalType": "uint256",
          "name": "replyID",
          "type": "uint256"
        },
        {
          "indexed": false,
          "internalType": "uint256",
          "name": "retweetID",
          "type": "uint256"
        }
      ],
      "name": "DeleteTweet",
      "type": "event"
    },
    {
      "anonymous": false,
      "inputs": [
        {
          "indexed": true,
          "internalType": "uint256",
          "name": "id",
          "type": "uint256"
        },
        {
          "indexed": true,
          "internalType": "address",
          "name": "from",
          "type": "address"
        },
        {
          "indexed": false,
          "internalType": "uint256",
          "name": "timestamp",
          "type": "uint256"
        },
        {
          "indexed": false,
          "internalType": "string",
          "name": "message",
          "type": "string"
        },
        {
          "indexed": false,
          "internalType": "bool",
          "name": "deleted",
          "type": "bool"
        },
        {
          "indexed": false,
          "internalType": "uint256",
          "name": "replyID",
          "type": "uint256"
        },
        {
          "indexed": false,
          "internalType": "uint256",
          "name": "retweetID",
          "type": "uint256"
        }
      ],
      "name": "EditTweet",
      "type": "event"
    },
    {
      "anonymous": false,
      "inputs": [
        {
          "indexed": true,
          "internalType": "uint256",
          "name": "id",
          "type": "uint256"
        },
        {
          "indexed": true,
          "internalType": "address",
          "name": "from",
          "type": "address"
        },
        {
          "indexed": false,
          "internalType": "uint256",
          "name": "timestamp",
          "type": "uint256"
        },
        {
          "indexed": false,
          "internalType": "string",
          "name": "message",
          "type": "string"
        },
        {
          "indexed": false,
          "internalType": "bool",
          "name": "deleted",
          "type": "bool"
        },
        {
          "indexed": false,
          "internalType": "uint256",
          "name": "replyID",
          "type": "uint256"
        },
        {
          "indexed": false,
          "internalType": "uint256",
          "name": "retweetID",
          "type": "uint256"
        }
      ],
      "name": "NewTweet",
      "type": "event"
    },
    {
      "anonymous": false,
      "inputs": [
        {
          "indexed": true,
          "internalType": "address",
          "name": "previousOwner",
          "type": "address"
        },
        {
          "indexed": true,
          "internalType": "address",
          "name": "newOwner",
          "type": "address"
        }
      ],
      "name": "OwnershipTransferred",
      "type": "event"
    },
    {
      "anonymous": false,
      "inputs": [
        {
          "indexed": false,
          "internalType": "address",
          "name": "account",
          "type": "address"
        }
      ],
      "name": "Paused",
      "type": "event"
    },
    {
      "anonymous": false,
      "inputs": [
        {
          "indexed": false,
          "internalType": "address",
          "name": "account",
          "type": "address"
        }
      ],
      "name": "Unpaused",
      "type": "event"
    },
    {
      "inputs": [
        {
          "internalType": "uint256",
          "name": "_id",
          "type": "uint256"
        }
      ],
      "name": "deleteTweet",
      "outputs": [],
      "stateMutability": "nonpayable",
      "type": "function"
    },
    {
      "inputs": [
        {
          "internalType": "uint256",
          "name": "_id",
          "type": "uint256"
        },
        {
          "internalType": "string",
          "name": "_message",
          "type": "string"
        }
      ],
      "name": "editTweet",
      "outputs": [],
      "stateMutability": "nonpayable",
      "type": "function"
    },
    {
      "inputs": [],
      "name": "getBalance",
      "outputs": [
        {
          "internalType": "uint256",
          "name": "",
          "type": "uint256"
        }
      ],
      "stateMutability": "view",
      "type": "function"
    },
    {
      "inputs": [],
      "name": "getOwner",
      "outputs": [
        {
          "internalType": "address",
          "name": "",
          "type": "address"
        }
      ],
      "stateMutability": "view",
      "type": "function"
    },
    {
      "inputs": [],
      "name": "getPrice",
      "outputs": [
        {
          "internalType": "uint256",
          "name": "",
          "type": "uint256"
        }
      ],
      "stateMutability": "view",
      "type": "function"
    },
    {
      "inputs": [],
      "name": "getTotalTweets",
      "outputs": [
        {
          "internalType": "uint256",
          "name": "",
          "type": "uint256"
        }
      ],
      "stateMutability": "view",
      "type": "function"
    },
    {
      "inputs": [],
      "name": "getTweets",
      "outputs": [
        {
          "components": [
            {
              "internalType": "address",
              "name": "from",
              "type": "address"
            },
            {
              "internalType": "uint256",
              "name": "timestamp",
              "type": "uint256"
            },
            {
              "internalType": "string",
              "name": "message",
              "type": "string"
            },
            {
              "internalType": "bool",
              "name": "deleted",
              "type": "bool"
            },
            {
              "internalType": "uint256",
              "name": "replyID",
              "type": "uint256"
            },
            {
              "internalType": "uint256",
              "name": "retweetID",
              "type": "uint256"
            }
          ],
          "internalType": "struct DTwitter.Tweet[]",
          "name": "",
          "type": "tuple[]"
        }
      ],
      "stateMutability": "view",
      "type": "function"
    },
    {
      "inputs": [],
      "name": "id",
      "outputs": [
        {
          "internalType": "uint256",
          "name": "",
          "type": "uint256"
        }
      ],
      "stateMutability": "view",
      "type": "function"
    },
    {
      "inputs": [
        {
          "internalType": "address",
          "name": "",
          "type": "address"
        }
      ],
      "name": "lastTweetedAt",
      "outputs": [
        {
          "internalType": "uint256",
          "name": "",
          "type": "uint256"
        }
      ],
      "stateMutability": "view",
      "type": "function"
    },
    {
      "inputs": [
        {
          "internalType": "string",
          "name": "_message",
          "type": "string"
        },
        {
          "internalType": "uint256",
          "name": "_replyID",
          "type": "uint256"
        },
        {
          "internalType": "uint256",
          "name": "_retweetID",
          "type": "uint256"
        }
      ],
      "name": "newTweet",
      "outputs": [],
      "stateMutability": "payable",
      "type": "function"
    },
    {
      "inputs": [],
      "name": "owner",
      "outputs": [
        {
          "internalType": "address",
          "name": "",
          "type": "address"
        }
      ],
      "stateMutability": "view",
      "type": "function"
    },
    {
      "inputs": [],
      "name": "paused",
      "outputs": [
        {
          "internalType": "bool",
          "name": "",
          "type": "bool"
        }
      ],
      "stateMutability": "view",
      "type": "function"
    },
    {
      "inputs": [],
      "name": "price",
      "outputs": [
        {
          "internalType": "uint256",
          "name": "",
          "type": "uint256"
        }
      ],
      "stateMutability": "view",
      "type": "function"
    },
    {
      "inputs": [],
      "name": "renounceOwnership",
      "outputs": [],
      "stateMutability": "nonpayable",
      "type": "function"
    },
    {
      "inputs": [
        {
          "internalType": "address",
          "name": "newOwner",
          "type": "address"
        }
      ],
      "name": "transferOwnership",
      "outputs": [],
      "stateMutability": "nonpayable",
      "type": "function"
    },
    {
      "inputs": [
        {
          "internalType": "uint256",
          "name": "",
          "type": "uint256"
        }
      ],
      "name": "tweetIDs",
      "outputs": [
        {
          "internalType": "uint256",
          "name": "",
          "type": "uint256"
        }
      ],
      "stateMutability": "view",
      "type": "function"
    },
    {
      "inputs": [
        {
          "internalType": "uint256",
          "name": "",
          "type": "uint256"
        }
      ],
      "name": "tweets",
      "outputs": [
        {
          "internalType": "address",
          "name": "from",
          "type": "address"
        },
        {
          "internalType": "uint256",
          "name": "timestamp",
          "type": "uint256"
        },
        {
          "internalType": "string",
          "name": "message",
          "type": "string"
        },
        {
          "internalType": "bool",
          "name": "deleted",
          "type": "bool"
        },
        {
          "internalType": "uint256",
          "name": "replyID",
          "type": "uint256"
        },
        {
          "internalType": "uint256",
          "name": "retweetID",
          "type": "uint256"
        }
      ],
      "stateMutability": "view",
      "type": "function"
    }
  ],
  "bytecode": "0x6080604052600160025560405162001ee838038062001ee883398181016040528101906200002e919062000182565b6200004e620000426200007660201b60201c565b6200007e60201b60201c565b60008060146101000a81548160ff0219169083151502179055508060018190555050620001b4565b600033905090565b60008060009054906101000a900473ffffffffffffffffffffffffffffffffffffffff169050816000806101000a81548173ffffffffffffffffffffffffffffffffffffffff021916908373ffffffffffffffffffffffffffffffffffffffff1602179055508173ffffffffffffffffffffffffffffffffffffffff168173ffffffffffffffffffffffffffffffffffffffff167f8be0079c531659141344cd1fd0a4f28419497f9722a3daafe3b4186f6b6457e060405160405180910390a35050565b600080fd5b6000819050919050565b6200015c8162000147565b81146200016857600080fd5b50565b6000815190506200017c8162000151565b92915050565b6000602082840312156200019b576200019a62000142565b5b6000620001ab848285016200016b565b91505092915050565b611d2480620001c46000396000f3fe6080604052600436106100fe5760003560e01c8063a035b1fe11610095578063d490db2711610064578063d490db2714610315578063e8d857b014610331578063eae9e13514610373578063f2fde38b1461039c578063fc86741f146103c5576100fe565b8063a035b1fe14610245578063ac61d8d714610270578063af640d0f146102ad578063b281395b146102d8576100fe565b8063893d20e8116100d1578063893d20e8146101995780638da5cb5b146101c457806393f11c27146101ef57806398d5fdca1461021a576100fe565b806312065fe0146101035780635775912a1461012e5780635c975abb14610157578063715018a614610182575b600080fd5b34801561010f57600080fd5b506101186103f0565b6040516101259190611285565b60405180910390f35b34801561013a57600080fd5b50610155600480360381019061015091906112e0565b6103f8565b005b34801561016357600080fd5b5061016c61063c565b6040516101799190611328565b60405180910390f35b34801561018e57600080fd5b50610197610652565b005b3480156101a557600080fd5b506101ae610666565b6040516101bb9190611384565b60405180910390f35b3480156101d057600080fd5b506101d9610675565b6040516101e69190611384565b60405180910390f35b3480156101fb57600080fd5b5061020461069e565b6040516102119190611285565b60405180910390f35b34801561022657600080fd5b5061022f6106ab565b60405161023c9190611285565b60405180910390f35b34801561025157600080fd5b5061025a6106b5565b6040516102679190611285565b60405180910390f35b34801561027c57600080fd5b50610297600480360381019061029291906112e0565b6106bb565b6040516102a49190611285565b60405180910390f35b3480156102b957600080fd5b506102c26106df565b6040516102cf9190611285565b60405180910390f35b3480156102e457600080fd5b506102ff60048036038101906102fa91906113cb565b6106e5565b60405161030c9190611285565b60405180910390f35b61032f600480360381019061032a919061153e565b6106fd565b005b34801561033d57600080fd5b50610358600480360381019061035391906112e0565b6109ef565b60405161036a96959493929190611635565b60405180910390f35b34801561037f57600080fd5b5061039a6004803603810190610395919061169d565b610ae0565b005b3480156103a857600080fd5b506103c360048036038101906103be91906113cb565b610d5e565b005b3480156103d157600080fd5b506103da610de2565b6040516103e791906118bb565b60405180910390f35b600047905090565b610400610fe7565b610408611065565b600060046000838152602001908152602001600020600101541415610459576040517ff5d2101e00000000000000000000000000000000000000000000000000000000815260040160405180910390fd5b6004600082815260200190815260200160002060030160009054906101000a900460ff16156104b4576040517f29de661200000000000000000000000000000000000000000000000000000000815260040160405180910390fd5b3373ffffffffffffffffffffffffffffffffffffffff166004600083815260200190815260200160002060000160009054906101000a900473ffffffffffffffffffffffffffffffffffffffff1673ffffffffffffffffffffffffffffffffffffffff161461054f576040517f82b4290000000000000000000000000000000000000000000000000000000000815260040160405180910390fd5b60016004600083815260200190815260200160002060030160006101000a81548160ff0219169083151502179055503373ffffffffffffffffffffffffffffffffffffffff16817fd1a7ebaecd97d90fc93690e7580a45f9046c0756d5ab34bd0cfce28ae58f114f42600460008681526020019081526020016000206002016004600087815260200190815260200160002060030160009054906101000a900460ff16600460008881526020019081526020016000206004015460046000898152602001908152602001600020600501546040516106319594939291906119d3565b60405180910390a350565b60008060149054906101000a900460ff16905090565b61065a610fe7565b61066460006110af565b565b6000610670610675565b905090565b60008060009054906101000a900473ffffffffffffffffffffffffffffffffffffffff16905090565b6000600380549050905090565b6000600154905090565b60015481565b600381815481106106cb57600080fd5b906000526020600020016000915090505481565b60025481565b60056020528060005260406000206000915090505481565b610705610fe7565b61070d611065565b600154341015610748576040517ebfc92100000000000000000000000000000000000000000000000000000000815260040160405180910390fd5b61011883511115610785576040517f6eca2e4b00000000000000000000000000000000000000000000000000000000815260040160405180910390fd5b42603c600560003373ffffffffffffffffffffffffffffffffffffffff1673ffffffffffffffffffffffffffffffffffffffff168152602001908152602001600020546107d29190611a5c565b10610809576040517fa3ce25cb00000000000000000000000000000000000000000000000000000000815260040160405180910390fd5b42600560003373ffffffffffffffffffffffffffffffffffffffff1673ffffffffffffffffffffffffffffffffffffffff168152602001908152602001600020819055506040518060c001604052803373ffffffffffffffffffffffffffffffffffffffff1681526020014281526020018481526020016000151581526020018381526020018281525060046000600254815260200190815260200160002060008201518160000160006101000a81548173ffffffffffffffffffffffffffffffffffffffff021916908373ffffffffffffffffffffffffffffffffffffffff16021790555060208201518160010155604082015181600201908051906020019061091592919061117b565b5060608201518160030160006101000a81548160ff0219169083151502179055506080820151816004015560a08201518160050155905050600360025490806001815401808255809150506001900390600052602060002001600090919091909150553373ffffffffffffffffffffffffffffffffffffffff166002547f95ddbe40e589682de7b309cb88ed7a199bbb6bda251729fab039d408457e15a64286600087876040516109ca959493929190611ab2565b60405180910390a3600260008154809291906109e590611b0c565b9190505550505050565b60046020528060005260406000206000915090508060000160009054906101000a900473ffffffffffffffffffffffffffffffffffffffff1690806001015490806002018054610a3e9061190c565b80601f0160208091040260200160405190810160405280929190818152602001828054610a6a9061190c565b8015610ab75780601f10610a8c57610100808354040283529160200191610ab7565b820191906000526020600020905b815481529060010190602001808311610a9a57829003601f168201915b5050505050908060030160009054906101000a900460ff16908060040154908060050154905086565b610ae8610fe7565b610af0611065565b600060046000848152602001908152602001600020600101541415610b41576040517ff5d2101e00000000000000000000000000000000000000000000000000000000815260040160405180910390fd5b6004600083815260200190815260200160002060030160009054906101000a900460ff1615610b9c576040517f29de661200000000000000000000000000000000000000000000000000000000815260040160405180910390fd5b3373ffffffffffffffffffffffffffffffffffffffff166004600084815260200190815260200160002060000160009054906101000a900473ffffffffffffffffffffffffffffffffffffffff1673ffffffffffffffffffffffffffffffffffffffff1614610c37576040517f82b4290000000000000000000000000000000000000000000000000000000000815260040160405180910390fd5b61011881511115610c74576040517f6eca2e4b00000000000000000000000000000000000000000000000000000000815260040160405180910390fd5b80600460008481526020019081526020016000206002019080519060200190610c9e92919061117b565b503373ffffffffffffffffffffffffffffffffffffffff16827f1dbbd33e7a06a3d6b3eb06987927cc5c71764c24bc2e8f56d90d2505c0c8606042600460008781526020019081526020016000206002016004600088815260200190815260200160002060030160009054906101000a900460ff166004600089815260200190815260200160002060040154600460008a815260200190815260200160002060050154604051610d529594939291906119d3565b60405180910390a35050565b610d66610fe7565b600073ffffffffffffffffffffffffffffffffffffffff168173ffffffffffffffffffffffffffffffffffffffff161415610dd6576040517f08c379a0000000000000000000000000000000000000000000000000000000008152600401610dcd90611bc7565b60405180910390fd5b610ddf816110af565b50565b6060600060038054905067ffffffffffffffff811115610e0557610e04611413565b5b604051908082528060200260200182016040528015610e3e57816020015b610e2b611201565b815260200190600190039081610e235790505b50905060005b600380549050811015610fdf576004600060038381548110610e6957610e68611be7565b5b906000526020600020015481526020019081526020016000206040518060c00160405290816000820160009054906101000a900473ffffffffffffffffffffffffffffffffffffffff1673ffffffffffffffffffffffffffffffffffffffff1673ffffffffffffffffffffffffffffffffffffffff16815260200160018201548152602001600282018054610efd9061190c565b80601f0160208091040260200160405190810160405280929190818152602001828054610f299061190c565b8015610f765780601f10610f4b57610100808354040283529160200191610f76565b820191906000526020600020905b815481529060010190602001808311610f5957829003601f168201915b505050505081526020016003820160009054906101000a900460ff1615151515815260200160048201548152602001600582015481525050828281518110610fc157610fc0611be7565b5b60200260200101819052508080610fd790611b0c565b915050610e44565b508091505090565b610fef611173565b73ffffffffffffffffffffffffffffffffffffffff1661100d610675565b73ffffffffffffffffffffffffffffffffffffffff1614611063576040517f08c379a000000000000000000000000000000000000000000000000000000000815260040161105a90611c62565b60405180910390fd5b565b61106d61063c565b156110ad576040517f08c379a00000000000000000000000000000000000000000000000000000000081526004016110a490611cce565b60405180910390fd5b565b60008060009054906101000a900473ffffffffffffffffffffffffffffffffffffffff169050816000806101000a81548173ffffffffffffffffffffffffffffffffffffffff021916908373ffffffffffffffffffffffffffffffffffffffff1602179055508173ffffffffffffffffffffffffffffffffffffffff168173ffffffffffffffffffffffffffffffffffffffff167f8be0079c531659141344cd1fd0a4f28419497f9722a3daafe3b4186f6b6457e060405160405180910390a35050565b600033905090565b8280546111879061190c565b90600052602060002090601f0160209004810192826111a957600085556111f0565b82601f106111c257805160ff19168380011785556111f0565b828001600101855582156111f0579182015b828111156111ef5782518255916020019190600101906111d4565b5b5090506111fd919061124f565b5090565b6040518060c00160405280600073ffffffffffffffffffffffffffffffffffffffff168152602001600081526020016060815260200160001515815260200160008152602001600081525090565b5b80821115611268576000816000905550600101611250565b5090565b6000819050919050565b61127f8161126c565b82525050565b600060208201905061129a6000830184611276565b92915050565b6000604051905090565b600080fd5b600080fd5b6112bd8161126c565b81146112c857600080fd5b50565b6000813590506112da816112b4565b92915050565b6000602082840312156112f6576112f56112aa565b5b6000611304848285016112cb565b91505092915050565b60008115159050919050565b6113228161130d565b82525050565b600060208201905061133d6000830184611319565b92915050565b600073ffffffffffffffffffffffffffffffffffffffff82169050919050565b600061136e82611343565b9050919050565b61137e81611363565b82525050565b60006020820190506113996000830184611375565b92915050565b6113a881611363565b81146113b357600080fd5b50565b6000813590506113c58161139f565b92915050565b6000602082840312156113e1576113e06112aa565b5b60006113ef848285016113b6565b91505092915050565b600080fd5b600080fd5b6000601f19601f8301169050919050565b7f4e487b7100000000000000000000000000000000000000000000000000000000600052604160045260246000fd5b61144b82611402565b810181811067ffffffffffffffff8211171561146a57611469611413565b5b80604052505050565b600061147d6112a0565b90506114898282611442565b919050565b600067ffffffffffffffff8211156114a9576114a8611413565b5b6114b282611402565b9050602081019050919050565b82818337600083830152505050565b60006114e16114dc8461148e565b611473565b9050828152602081018484840111156114fd576114fc6113fd565b5b6115088482856114bf565b509392505050565b600082601f830112611525576115246113f8565b5b81356115358482602086016114ce565b91505092915050565b600080600060608486031215611557576115566112aa565b5b600084013567ffffffffffffffff811115611575576115746112af565b5b61158186828701611510565b9350506020611592868287016112cb565b92505060406115a3868287016112cb565b9150509250925092565b600081519050919050565b600082825260208201905092915050565b60005b838110156115e75780820151818401526020810190506115cc565b838111156115f6576000848401525b50505050565b6000611607826115ad565b61161181856115b8565b93506116218185602086016115c9565b61162a81611402565b840191505092915050565b600060c08201905061164a6000830189611375565b6116576020830188611276565b818103604083015261166981876115fc565b90506116786060830186611319565b6116856080830185611276565b61169260a0830184611276565b979650505050505050565b600080604083850312156116b4576116b36112aa565b5b60006116c2858286016112cb565b925050602083013567ffffffffffffffff8111156116e3576116e26112af565b5b6116ef85828601611510565b9150509250929050565b600081519050919050565b600082825260208201905092915050565b6000819050602082019050919050565b61172e81611363565b82525050565b61173d8161126c565b82525050565b600082825260208201905092915050565b600061175f826115ad565b6117698185611743565b93506117798185602086016115c9565b61178281611402565b840191505092915050565b6117968161130d565b82525050565b600060c0830160008301516117b46000860182611725565b5060208301516117c76020860182611734565b50604083015184820360408601526117df8282611754565b91505060608301516117f4606086018261178d565b5060808301516118076080860182611734565b5060a083015161181a60a0860182611734565b508091505092915050565b6000611831838361179c565b905092915050565b6000602082019050919050565b6000611851826116f9565b61185b8185611704565b93508360208202850161186d85611715565b8060005b858110156118a9578484038952815161188a8582611825565b945061189583611839565b925060208a01995050600181019050611871565b50829750879550505050505092915050565b600060208201905081810360008301526118d58184611846565b905092915050565b7f4e487b7100000000000000000000000000000000000000000000000000000000600052602260045260246000fd5b6000600282049050600182168061192457607f821691505b60208210811415611938576119376118dd565b5b50919050565b60008190508160005260206000209050919050565b600081546119608161190c565b61196a81866115b8565b945060018216600081146119855760018114611997576119ca565b60ff19831686526020860193506119ca565b6119a08561193e565b60005b838110156119c2578154818901526001820191506020810190506119a3565b808801955050505b50505092915050565b600060a0820190506119e86000830188611276565b81810360208301526119fa8187611953565b9050611a096040830186611319565b611a166060830185611276565b611a236080830184611276565b9695505050505050565b7f4e487b7100000000000000000000000000000000000000000000000000000000600052601160045260246000fd5b6000611a678261126c565b9150611a728361126c565b9250827fffffffffffffffffffffffffffffffffffffffffffffffffffffffffffffffff03821115611aa757611aa6611a2d565b5b828201905092915050565b600060a082019050611ac76000830188611276565b8181036020830152611ad981876115fc565b9050611ae86040830186611319565b611af56060830185611276565b611b026080830184611276565b9695505050505050565b6000611b178261126c565b91507fffffffffffffffffffffffffffffffffffffffffffffffffffffffffffffffff821415611b4a57611b49611a2d565b5b600182019050919050565b7f4f776e61626c653a206e6577206f776e657220697320746865207a65726f206160008201527f6464726573730000000000000000000000000000000000000000000000000000602082015250565b6000611bb16026836115b8565b9150611bbc82611b55565b604082019050919050565b60006020820190508181036000830152611be081611ba4565b9050919050565b7f4e487b7100000000000000000000000000000000000000000000000000000000600052603260045260246000fd5b7f4f776e61626c653a2063616c6c6572206973206e6f7420746865206f776e6572600082015250565b6000611c4c6020836115b8565b9150611c5782611c16565b602082019050919050565b60006020820190508181036000830152611c7b81611c3f565b9050919050565b7f5061757361626c653a2070617573656400000000000000000000000000000000600082015250565b6000611cb86010836115b8565b9150611cc382611c82565b602082019050919050565b60006020820190508181036000830152611ce781611cab565b905091905056fea26469706673582212204214249e78706c5b96670fa5bc3d9569a361244a69d7370b72c5407f5a29743c64736f6c63430008090033",
  "linkReferences": {},
  "deployedLinkReferences": {}
}