{
  "_format": "hh-sol-artifact-1",
  "contractName": "AccountManager",
  "sourceName": "contracts/AccountManager.sol",
  "abi": [
    {
      "inputs": [],
      "stateMutability": "nonpayable",
      "type": "constructor"
    },
    {
      "anonymous": false,
      "inputs": [
        {
          "indexed": true,
          "internalType": "address",
          "name": "user",
          "type": "address"
        }
      ],
      "name": "UserDeregister",
      "type": "event"
    },
    {
      "anonymous": false,
      "inputs": [
        {
          "indexed": true,
          "internalType": "address",
          "name": "user",
          "type": "address"
        },
        {
          "indexed": false,
          "internalType": "address",
          "name": "_contractAddress",
          "type": "address"
        }
      ],
      "name": "UserRegister",
      "type": "event"
    },
    {
      "inputs": [
        {
          "internalType": "address",
          "name": "_address",
          "type": "address"
        }
      ],
      "name": "Deregister",
      "outputs": [],
      "stateMutability": "nonpayable",
      "type": "function"
    },
    {
      "inputs": [
        {
          "internalType": "address",
          "name": "_address",
          "type": "address"
        }
      ],
      "name": "Register",
      "outputs": [],
      "stateMutability": "nonpayable",
      "type": "function"
    },
    {
      "inputs": [
        {
          "internalType": "address",
          "name": "_address",
          "type": "address"
        }
      ],
      "name": "Retrieve",
      "outputs": [
        {
          "internalType": "address",
          "name": "",
          "type": "address"
        }
      ],
      "stateMutability": "view",
      "type": "function"
    }
  ],
  "bytecode": "0x608060405234801561000f575f80fd5b503360015f6101000a81548173ffffffffffffffffffffffffffffffffffffffff021916908373ffffffffffffffffffffffffffffffffffffffff1602179055506104328061005d5f395ff3fe608060405234801561000f575f80fd5b506004361061003f575f3560e01c806339ff7c4814610043578063b42eee6b14610073578063eeda149c1461008f575b5f80fd5b61005d60048036038101906100589190610331565b6100ab565b60405161006a919061036b565b60405180910390f35b61008d60048036038101906100889190610331565b610114565b005b6100a960048036038101906100a49190610331565b6101b8565b005b5f805f808473ffffffffffffffffffffffffffffffffffffffff1673ffffffffffffffffffffffffffffffffffffffff1681526020019081526020015f205f9054906101000a900473ffffffffffffffffffffffffffffffffffffffff16905080915050919050565b5f808273ffffffffffffffffffffffffffffffffffffffff1673ffffffffffffffffffffffffffffffffffffffff1681526020019081526020015f205f6101000a81549073ffffffffffffffffffffffffffffffffffffffff02191690558073ffffffffffffffffffffffffffffffffffffffff167f36b9b74f47f2786dc6c8b952c1470e4648a5e9fb67dd8ba28cf75af66ee6d0ef60405160405180910390a250565b805f813b90505f8163ffffffff1611610206576040517f08c379a00000000000000000000000000000000000000000000000000000000081526004016101fd906103de565b60405180910390fd5b825f803373ffffffffffffffffffffffffffffffffffffffff1673ffffffffffffffffffffffffffffffffffffffff1681526020019081526020015f205f6101000a81548173ffffffffffffffffffffffffffffffffffffffff021916908373ffffffffffffffffffffffffffffffffffffffff1602179055503373ffffffffffffffffffffffffffffffffffffffff167f711024fb40349a92ae1adc489fc4000e8bb5496be2060294120e01cd6cd9a4f8846040516102c6919061036b565b60405180910390a2505050565b5f80fd5b5f73ffffffffffffffffffffffffffffffffffffffff82169050919050565b5f610300826102d7565b9050919050565b610310816102f6565b811461031a575f80fd5b50565b5f8135905061032b81610307565b92915050565b5f60208284031215610346576103456102d3565b5b5f6103538482850161031d565b91505092915050565b610365816102f6565b82525050565b5f60208201905061037e5f83018461035c565b92915050565b5f82825260208201905092915050565b7f4e656564206120636f6e747261637420616464726573730000000000000000005f82015250565b5f6103c8601783610384565b91506103d382610394565b602082019050919050565b5f6020820190508181035f8301526103f5816103bc565b905091905056fea2646970667358221220d3ba8434f7d2662a5e4829615e3489d85b4d3bc97d0692578e47eece5153f84d64736f6c63430008140033",
  "linkReferences": {},
  "deployedLinkReferences": {}
}