{
  "_format": "hh-sol-artifact-1",
  "contractName": "Twitter",
  "sourceName": "contracts/Twitter.sol",
  "abi": [
    {
      "inputs": [],
      "stateMutability": "nonpayable",
      "type": "constructor"
    },
    {
      "anonymous": false,
      "inputs": [
        {
          "indexed": false,
          "internalType": "uint256",
          "name": "id",
          "type": "uint256"
        },
        {
          "indexed": false,
          "internalType": "bool",
          "name": "isDeleted",
          "type": "bool"
        }
      ],
      "name": "TweetDeleted",
      "type": "event"
    },
    {
      "anonymous": false,
      "inputs": [
        {
          "indexed": false,
          "internalType": "address",
          "name": "tweeter",
          "type": "address"
        },
        {
          "indexed": false,
          "internalType": "uint256",
          "name": "id",
          "type": "uint256"
        },
        {
          "indexed": false,
          "internalType": "string",
          "name": "tweetText",
          "type": "string"
        },
        {
          "indexed": false,
          "internalType": "string",
          "name": "tweetImg",
          "type": "string"
        },
        {
          "indexed": false,
          "internalType": "bool",
          "name": "isDeleted",
          "type": "bool"
        },
        {
          "indexed": false,
          "internalType": "uint256",
          "name": "timestamp",
          "type": "uint256"
        }
      ],
      "name": "tweetCreated",
      "type": "event"
    },
    {
      "inputs": [
        {
          "internalType": "string",
          "name": "tweetText",
          "type": "string"
        },
        {
          "internalType": "string",
          "name": "tweetImg",
          "type": "string"
        }
      ],
      "name": "addTweet",
      "outputs": [],
      "stateMutability": "nonpayable",
      "type": "function"
    },
    {
      "inputs": [
        {
          "internalType": "uint256",
          "name": "tweetId",
          "type": "uint256"
        },
        {
          "internalType": "bool",
          "name": "isDeleted",
          "type": "bool"
        }
      ],
      "name": "deleteTweet",
      "outputs": [],
      "stateMutability": "nonpayable",
      "type": "function"
    },
    {
      "inputs": [],
      "name": "getAllTweets",
      "outputs": [
        {
          "components": [
            {
              "internalType": "address",
              "name": "tweeter",
              "type": "address"
            },
            {
              "internalType": "uint256",
              "name": "id",
              "type": "uint256"
            },
            {
              "internalType": "string",
              "name": "tweetText",
              "type": "string"
            },
            {
              "internalType": "string",
              "name": "tweetImg",
              "type": "string"
            },
            {
              "internalType": "bool",
              "name": "isDeleted",
              "type": "bool"
            },
            {
              "internalType": "uint256",
              "name": "timestamp",
              "type": "uint256"
            }
          ],
          "internalType": "struct Twitter.tweet[]",
          "name": "",
          "type": "tuple[]"
        }
      ],
      "stateMutability": "view",
      "type": "function"
    },
    {
      "inputs": [],
      "name": "getMyTweets",
      "outputs": [
        {
          "components": [
            {
              "internalType": "address",
              "name": "tweeter",
              "type": "address"
            },
            {
              "internalType": "uint256",
              "name": "id",
              "type": "uint256"
            },
            {
              "internalType": "string",
              "name": "tweetText",
              "type": "string"
            },
            {
              "internalType": "string",
              "name": "tweetImg",
              "type": "string"
            },
            {
              "internalType": "bool",
              "name": "isDeleted",
              "type": "bool"
            },
            {
              "internalType": "uint256",
              "name": "timestamp",
              "type": "uint256"
            }
          ],
          "internalType": "struct Twitter.tweet[]",
          "name": "",
          "type": "tuple[]"
        }
      ],
      "stateMutability": "view",
      "type": "function"
    },
    {
      "inputs": [
        {
          "internalType": "uint256",
          "name": "id",
          "type": "uint256"
        }
      ],
      "name": "getTweet",
      "outputs": [
        {
          "internalType": "string",
          "name": "",
          "type": "string"
        },
        {
          "internalType": "string",
          "name": "",
          "type": "string"
        },
        {
          "internalType": "address",
          "name": "",
          "type": "address"
        }
      ],
      "stateMutability": "view",
      "type": "function"
    },
    {
      "inputs": [
        {
          "internalType": "address",
          "name": "userAddress",
          "type": "address"
        }
      ],
      "name": "getUser",
      "outputs": [
        {
          "components": [
            {
              "internalType": "string",
              "name": "name",
              "type": "string"
            },
            {
              "internalType": "string",
              "name": "bio",
              "type": "string"
            },
            {
              "internalType": "string",
              "name": "profileImg",
              "type": "string"
            },
            {
              "internalType": "string",
              "name": "profileBanner",
              "type": "string"
            }
          ],
          "internalType": "struct Twitter.user",
          "name": "",
          "type": "tuple"
        }
      ],
      "stateMutability": "view",
      "type": "function"
    },
    {
      "inputs": [],
      "name": "owner",
      "outputs": [
        {
          "internalType": "address",
          "name": "",
          "type": "address"
        }
      ],
      "stateMutability": "view",
      "type": "function"
    },
    {
      "inputs": [
        {
          "internalType": "string",
          "name": "newName",
          "type": "string"
        },
        {
          "internalType": "string",
          "name": "newBio",
          "type": "string"
        },
        {
          "internalType": "string",
          "name": "newProfileImg",
          "type": "string"
        },
        {
          "internalType": "string",
          "name": "newProfileBanner",
          "type": "string"
        }
      ],
      "name": "updateUser",
      "outputs": [],
      "stateMutability": "nonpayable",
      "type": "function"
    }
  ],
  "bytecode": "0x608060405234801561001057600080fd5b50336000806101000a81548173ffffffffffffffffffffffffffffffffffffffff021916908373ffffffffffffffffffffffffffffffffffffffff1602179055506000600181905550611e14806100686000396000f3fe608060405234801561001057600080fd5b50600436106100885760003560e01c8063aefedbc21161005b578063aefedbc214610115578063b5c24a0114610133578063c3ad5ecb1461014f578063f0312a371461018157610088565b8063532561351461008d5780636f77926b146100ab5780637e75b408146100db5780638da5cb5b146100f7575b600080fd5b61009561019d565b6040516100a2919061130f565b60405180910390f35b6100c560048036038101906100c09190611371565b6104f7565b6040516100d29190611416565b60405180910390f35b6100f560048036038101906100f0919061156d565b610798565b005b6100ff6108aa565b60405161010c91906115f4565b60405180910390f35b61011d6108ce565b60405161012a919061130f565b60405180910390f35b61014d6004803603810190610148919061160f565b610c96565b005b61016960048036038101906101649190611712565b610d28565b60405161017893929190611789565b60405180910390f35b61019b600480360381019061019691906117fa565b610f33565b005b6060600060015467ffffffffffffffff8111156101bd576101bc611442565b5b6040519080825280602002602001820160405280156101f657816020015b6101e3611042565b8152602001906001900390816101db5790505b5090506000805b60015481101561043d57600015156002600083815260200190815260200160002060040160009054906101000a900460ff1615150361042a57600260008281526020019081526020016000206040518060c00160405290816000820160009054906101000a900473ffffffffffffffffffffffffffffffffffffffff1673ffffffffffffffffffffffffffffffffffffffff1673ffffffffffffffffffffffffffffffffffffffff168152602001600182015481526020016002820180546102c490611869565b80601f01602080910402602001604051908101604052809291908181526020018280546102f090611869565b801561033d5780601f106103125761010080835404028352916020019161033d565b820191906000526020600020905b81548152906001019060200180831161032057829003601f168201915b5050505050815260200160038201805461035690611869565b80601f016020809104026020016040519081016040528092919081815260200182805461038290611869565b80156103cf5780601f106103a4576101008083540402835291602001916103cf565b820191906000526020600020905b8154815290600101906020018083116103b257829003601f168201915b505050505081526020016004820160009054906101000a900460ff161515151581526020016005820154815250508383815181106104105761040f61189a565b5b60200260200101819052508180610426906118f8565b9250505b8080610435906118f8565b9150506101fd565b5060008167ffffffffffffffff81111561045a57610459611442565b5b60405190808252806020026020018201604052801561049357816020015b610480611042565b8152602001906001900390816104785790505b50905060005b828110156104ed578381815181106104b4576104b361189a565b5b60200260200101518282815181106104cf576104ce61189a565b5b602002602001018190525080806104e5906118f8565b915050610499565b5080935050505090565b6104ff611090565b600360008373ffffffffffffffffffffffffffffffffffffffff1673ffffffffffffffffffffffffffffffffffffffff16815260200190815260200160002060405180608001604052908160008201805461055990611869565b80601f016020809104026020016040519081016040528092919081815260200182805461058590611869565b80156105d25780601f106105a7576101008083540402835291602001916105d2565b820191906000526020600020905b8154815290600101906020018083116105b557829003601f168201915b505050505081526020016001820180546105eb90611869565b80601f016020809104026020016040519081016040528092919081815260200182805461061790611869565b80156106645780601f1061063957610100808354040283529160200191610664565b820191906000526020600020905b81548152906001019060200180831161064757829003601f168201915b5050505050815260200160028201805461067d90611869565b80601f01602080910402602001604051908101604052809291908181526020018280546106a990611869565b80156106f65780601f106106cb576101008083540402835291602001916106f6565b820191906000526020600020905b8154815290600101906020018083116106d957829003601f168201915b5050505050815260200160038201805461070f90611869565b80601f016020809104026020016040519081016040528092919081815260200182805461073b90611869565b80156107885780601f1061075d57610100808354040283529160200191610788565b820191906000526020600020905b81548152906001019060200180831161076b57829003601f168201915b5050505050815250509050919050565b60006002600060015481526020019081526020016000209050828160020190816107c29190611aec565b50818160030190816107d49190611aec565b50338160000160006101000a81548173ffffffffffffffffffffffffffffffffffffffff021916908373ffffffffffffffffffffffffffffffffffffffff160217905550600154816001018190555060008160040160006101000a81548160ff0219169083151502179055504281600501819055507f38c5779ac46571418294ee2465c37dedbc6002dc9d04a4033cf23156da62fcd333600154858560004260405161088596959493929190611bdc565b60405180910390a1600160008154809291906108a0906118f8565b9190505550505050565b60008054906101000a900473ffffffffffffffffffffffffffffffffffffffff1681565b6060600060015467ffffffffffffffff8111156108ee576108ed611442565b5b60405190808252806020026020018201604052801561092757816020015b610914611042565b81526020019060019003908161090c5790505b5090506000805b600154811015610bdc573373ffffffffffffffffffffffffffffffffffffffff166002600083815260200190815260200160002060000160009054906101000a900473ffffffffffffffffffffffffffffffffffffffff1673ffffffffffffffffffffffffffffffffffffffff161480156109d05750600015156002600083815260200190815260200160002060040160009054906101000a900460ff161515145b15610bc957600260008281526020019081526020016000206040518060c00160405290816000820160009054906101000a900473ffffffffffffffffffffffffffffffffffffffff1673ffffffffffffffffffffffffffffffffffffffff1673ffffffffffffffffffffffffffffffffffffffff16815260200160018201548152602001600282018054610a6390611869565b80601f0160208091040260200160405190810160405280929190818152602001828054610a8f90611869565b8015610adc5780601f10610ab157610100808354040283529160200191610adc565b820191906000526020600020905b815481529060010190602001808311610abf57829003601f168201915b50505050508152602001600382018054610af590611869565b80601f0160208091040260200160405190810160405280929190818152602001828054610b2190611869565b8015610b6e5780601f10610b4357610100808354040283529160200191610b6e565b820191906000526020600020905b815481529060010190602001808311610b5157829003601f168201915b505050505081526020016004820160009054906101000a900460ff16151515158152602001600582015481525050838381518110610baf57610bae61189a565b5b60200260200101819052508180610bc5906118f8565b9250505b8080610bd4906118f8565b91505061092e565b5060008167ffffffffffffffff811115610bf957610bf8611442565b5b604051908082528060200260200182016040528015610c3257816020015b610c1f611042565b815260200190600190039081610c175790505b50905060005b82811015610c8c57838181518110610c5357610c5261189a565b5b6020026020010151828281518110610c6e57610c6d61189a565b5b60200260200101819052508080610c84906118f8565b915050610c38565b5080935050505090565b6000600360003373ffffffffffffffffffffffffffffffffffffffff1673ffffffffffffffffffffffffffffffffffffffff168152602001908152602001600020905084816000019081610cea9190611aec565b5083816001019081610cfc9190611aec565b5082816002019081610d0e9190611aec565b5081816003019081610d209190611aec565b505050505050565b60608060006001548410610d71576040517f08c379a0000000000000000000000000000000000000000000000000000000008152600401610d6890611c97565b60405180910390fd5b6000600260008681526020019081526020016000209050600015158160040160009054906101000a900460ff16151514610de0576040517f08c379a0000000000000000000000000000000000000000000000000000000008152600401610dd790611d03565b60405180910390fd5b80600201816003018260000160009054906101000a900473ffffffffffffffffffffffffffffffffffffffff16828054610e1990611869565b80601f0160208091040260200160405190810160405280929190818152602001828054610e4590611869565b8015610e925780601f10610e6757610100808354040283529160200191610e92565b820191906000526020600020905b815481529060010190602001808311610e7557829003601f168201915b50505050509250818054610ea590611869565b80601f0160208091040260200160405190810160405280929190818152602001828054610ed190611869565b8015610f1e5780601f10610ef357610100808354040283529160200191610f1e565b820191906000526020600020905b815481529060010190602001808311610f0157829003601f168201915b50505050509150935093509350509193909250565b3373ffffffffffffffffffffffffffffffffffffffff166002600084815260200190815260200160002060000160009054906101000a900473ffffffffffffffffffffffffffffffffffffffff1673ffffffffffffffffffffffffffffffffffffffff1614610fd7576040517f08c379a0000000000000000000000000000000000000000000000000000000008152600401610fce90611d95565b60405180910390fd5b806002600084815260200190815260200160002060040160006101000a81548160ff0219169083151502179055507f90c03fdb3ba756f41c01353982e90798d484dbdcc5571fb39be23b1fee59490a8282604051611036929190611db5565b60405180910390a15050565b6040518060c00160405280600073ffffffffffffffffffffffffffffffffffffffff168152602001600081526020016060815260200160608152602001600015158152602001600081525090565b6040518060800160405280606081526020016060815260200160608152602001606081525090565b600081519050919050565b600082825260208201905092915050565b6000819050602082019050919050565b600073ffffffffffffffffffffffffffffffffffffffff82169050919050565b600061110f826110e4565b9050919050565b61111f81611104565b82525050565b6000819050919050565b61113881611125565b82525050565b600081519050919050565b600082825260208201905092915050565b60005b8381101561117857808201518184015260208101905061115d565b60008484015250505050565b6000601f19601f8301169050919050565b60006111a08261113e565b6111aa8185611149565b93506111ba81856020860161115a565b6111c381611184565b840191505092915050565b60008115159050919050565b6111e3816111ce565b82525050565b600060c0830160008301516112016000860182611116565b506020830151611214602086018261112f565b506040830151848203604086015261122c8282611195565b915050606083015184820360608601526112468282611195565b915050608083015161125b60808601826111da565b5060a083015161126e60a086018261112f565b508091505092915050565b600061128583836111e9565b905092915050565b6000602082019050919050565b60006112a5826110b8565b6112af81856110c3565b9350836020820285016112c1856110d4565b8060005b858110156112fd57848403895281516112de8582611279565b94506112e98361128d565b925060208a019950506001810190506112c5565b50829750879550505050505092915050565b60006020820190508181036000830152611329818461129a565b905092915050565b6000604051905090565b600080fd5b600080fd5b61134e81611104565b811461135957600080fd5b50565b60008135905061136b81611345565b92915050565b6000602082840312156113875761138661133b565b5b60006113958482850161135c565b91505092915050565b600060808301600083015184820360008601526113bb8282611195565b915050602083015184820360208601526113d58282611195565b915050604083015184820360408601526113ef8282611195565b915050606083015184820360608601526114098282611195565b9150508091505092915050565b60006020820190508181036000830152611430818461139e565b905092915050565b600080fd5b600080fd5b7f4e487b7100000000000000000000000000000000000000000000000000000000600052604160045260246000fd5b61147a82611184565b810181811067ffffffffffffffff8211171561149957611498611442565b5b80604052505050565b60006114ac611331565b90506114b88282611471565b919050565b600067ffffffffffffffff8211156114d8576114d7611442565b5b6114e182611184565b9050602081019050919050565b82818337600083830152505050565b600061151061150b846114bd565b6114a2565b90508281526020810184848401111561152c5761152b61143d565b5b6115378482856114ee565b509392505050565b600082601f83011261155457611553611438565b5b81356115648482602086016114fd565b91505092915050565b600080604083850312156115845761158361133b565b5b600083013567ffffffffffffffff8111156115a2576115a1611340565b5b6115ae8582860161153f565b925050602083013567ffffffffffffffff8111156115cf576115ce611340565b5b6115db8582860161153f565b9150509250929050565b6115ee81611104565b82525050565b600060208201905061160960008301846115e5565b92915050565b600080600080608085870312156116295761162861133b565b5b600085013567ffffffffffffffff81111561164757611646611340565b5b6116538782880161153f565b945050602085013567ffffffffffffffff81111561167457611673611340565b5b6116808782880161153f565b935050604085013567ffffffffffffffff8111156116a1576116a0611340565b5b6116ad8782880161153f565b925050606085013567ffffffffffffffff8111156116ce576116cd611340565b5b6116da8782880161153f565b91505092959194509250565b6116ef81611125565b81146116fa57600080fd5b50565b60008135905061170c816116e6565b92915050565b6000602082840312156117285761172761133b565b5b6000611736848285016116fd565b91505092915050565b600082825260208201905092915050565b600061175b8261113e565b611765818561173f565b935061177581856020860161115a565b61177e81611184565b840191505092915050565b600060608201905081810360008301526117a38186611750565b905081810360208301526117b78185611750565b90506117c660408301846115e5565b949350505050565b6117d7816111ce565b81146117e257600080fd5b50565b6000813590506117f4816117ce565b92915050565b600080604083850312156118115761181061133b565b5b600061181f858286016116fd565b9250506020611830858286016117e5565b9150509250929050565b7f4e487b7100000000000000000000000000000000000000000000000000000000600052602260045260246000fd5b6000600282049050600182168061188157607f821691505b6020821081036118945761189361183a565b5b50919050565b7f4e487b7100000000000000000000000000000000000000000000000000000000600052603260045260246000fd5b7f4e487b7100000000000000000000000000000000000000000000000000000000600052601160045260246000fd5b600061190382611125565b91507fffffffffffffffffffffffffffffffffffffffffffffffffffffffffffffffff8203611935576119346118c9565b5b600182019050919050565b60008190508160005260206000209050919050565b60006020601f8301049050919050565b600082821b905092915050565b6000600883026119a27fffffffffffffffffffffffffffffffffffffffffffffffffffffffffffffffff82611965565b6119ac8683611965565b95508019841693508086168417925050509392505050565b6000819050919050565b60006119e96119e46119df84611125565b6119c4565b611125565b9050919050565b6000819050919050565b611a03836119ce565b611a17611a0f826119f0565b848454611972565b825550505050565b600090565b611a2c611a1f565b611a378184846119fa565b505050565b5b81811015611a5b57611a50600082611a24565b600181019050611a3d565b5050565b601f821115611aa057611a7181611940565b611a7a84611955565b81016020851015611a89578190505b611a9d611a9585611955565b830182611a3c565b50505b505050565b600082821c905092915050565b6000611ac360001984600802611aa5565b1980831691505092915050565b6000611adc8383611ab2565b9150826002028217905092915050565b611af58261113e565b67ffffffffffffffff811115611b0e57611b0d611442565b5b611b188254611869565b611b23828285611a5f565b600060209050601f831160018114611b565760008415611b44578287015190505b611b4e8582611ad0565b865550611bb6565b601f198416611b6486611940565b60005b82811015611b8c57848901518255600182019150602085019450602081019050611b67565b86831015611ba95784890151611ba5601f891682611ab2565b8355505b6001600288020188555050505b505050505050565b611bc781611125565b82525050565b611bd6816111ce565b82525050565b600060c082019050611bf160008301896115e5565b611bfe6020830188611bbe565b8181036040830152611c108187611750565b90508181036060830152611c248186611750565b9050611c336080830185611bcd565b611c4060a0830184611bbe565b979650505050505050565b7f4e6f207375636820547765657400000000000000000000000000000000000000600082015250565b6000611c81600d8361173f565b9150611c8c82611c4b565b602082019050919050565b60006020820190508181036000830152611cb081611c74565b9050919050565b7f54776565742069732064656c6574656400000000000000000000000000000000600082015250565b6000611ced60108361173f565b9150611cf882611cb7565b602082019050919050565b60006020820190508181036000830152611d1c81611ce0565b9050919050565b7f596f752063616e206f6e6c792064656c65746520796f7572206f776e2074776560008201527f6574000000000000000000000000000000000000000000000000000000000000602082015250565b6000611d7f60228361173f565b9150611d8a82611d23565b604082019050919050565b60006020820190508181036000830152611dae81611d72565b9050919050565b6000604082019050611dca6000830185611bbe565b611dd76020830184611bcd565b939250505056fea264697066735822122063112913fcfa37cf3bd01507dcd7eca0c8c98fe59d34936637c7e9c8b2911bbc64736f6c63430008110033",
  "linkReferences": {},
  "deployedLinkReferences": {}
}