{
  "_format": "hh-sol-artifact-1",
  "contractName": "UserContract",
  "sourceName": "contracts/UserContract.sol",
  "abi": [
    {
      "inputs": [],
      "stateMutability": "nonpayable",
      "type": "constructor"
    },
    {
      "anonymous": false,
      "inputs": [
        {
          "indexed": false,
          "internalType": "uint256",
          "name": "id",
          "type": "uint256"
        },
        {
          "indexed": false,
          "internalType": "bool",
          "name": "isDeleted",
          "type": "bool"
        }
      ],
      "name": "TweetDeleted",
      "type": "event"
    },
    {
      "anonymous": false,
      "inputs": [
        {
          "indexed": false,
          "internalType": "address",
          "name": "walletAddress",
          "type": "address"
        },
        {
          "indexed": false,
          "internalType": "address",
          "name": "contractAddress",
          "type": "address"
        },
        {
          "indexed": false,
          "internalType": "uint256",
          "name": "id",
          "type": "uint256"
        },
        {
          "indexed": false,
          "internalType": "bool",
          "name": "isDeleted",
          "type": "bool"
        }
      ],
      "name": "friendAdded",
      "type": "event"
    },
    {
      "anonymous": false,
      "inputs": [
        {
          "indexed": false,
          "internalType": "uint256",
          "name": "id",
          "type": "uint256"
        },
        {
          "indexed": false,
          "internalType": "bool",
          "name": "isDeleted",
          "type": "bool"
        }
      ],
      "name": "friendDeleted",
      "type": "event"
    },
    {
      "anonymous": false,
      "inputs": [
        {
          "indexed": false,
          "internalType": "address",
          "name": "tweeter",
          "type": "address"
        },
        {
          "indexed": false,
          "internalType": "uint256",
          "name": "id",
          "type": "uint256"
        },
        {
          "indexed": false,
          "internalType": "string",
          "name": "tweetText",
          "type": "string"
        },
        {
          "indexed": false,
          "internalType": "string",
          "name": "tweetImg",
          "type": "string"
        },
        {
          "indexed": false,
          "internalType": "bool",
          "name": "isDeleted",
          "type": "bool"
        },
        {
          "indexed": false,
          "internalType": "uint256",
          "name": "timestamp",
          "type": "uint256"
        }
      ],
      "name": "tweetCreated",
      "type": "event"
    },
    {
      "inputs": [
        {
          "internalType": "address",
          "name": "walletAddress",
          "type": "address"
        },
        {
          "internalType": "address",
          "name": "contractAddress",
          "type": "address"
        }
      ],
      "name": "addFriend",
      "outputs": [],
      "stateMutability": "nonpayable",
      "type": "function"
    },
    {
      "inputs": [
        {
          "internalType": "string",
          "name": "tweetText",
          "type": "string"
        },
        {
          "internalType": "string",
          "name": "tweetImg",
          "type": "string"
        }
      ],
      "name": "addTweet",
      "outputs": [],
      "stateMutability": "nonpayable",
      "type": "function"
    },
    {
      "inputs": [
        {
          "internalType": "uint256",
          "name": "friendId",
          "type": "uint256"
        },
        {
          "internalType": "bool",
          "name": "isDeleted",
          "type": "bool"
        }
      ],
      "name": "deleteFriend",
      "outputs": [],
      "stateMutability": "nonpayable",
      "type": "function"
    },
    {
      "inputs": [
        {
          "internalType": "uint256",
          "name": "tweetId",
          "type": "uint256"
        },
        {
          "internalType": "bool",
          "name": "isDeleted",
          "type": "bool"
        }
      ],
      "name": "deleteTweet",
      "outputs": [],
      "stateMutability": "nonpayable",
      "type": "function"
    },
    {
      "inputs": [],
      "name": "getAllFriends",
      "outputs": [
        {
          "components": [
            {
              "internalType": "address",
              "name": "walletAddress",
              "type": "address"
            },
            {
              "internalType": "address",
              "name": "contractAddress",
              "type": "address"
            },
            {
              "internalType": "uint256",
              "name": "id",
              "type": "uint256"
            },
            {
              "internalType": "bool",
              "name": "isDeleted",
              "type": "bool"
            }
          ],
          "internalType": "struct UserContract.Friend[]",
          "name": "",
          "type": "tuple[]"
        }
      ],
      "stateMutability": "view",
      "type": "function"
    },
    {
      "inputs": [],
      "name": "getAllTweets",
      "outputs": [
        {
          "components": [
            {
              "internalType": "address",
              "name": "tweeter",
              "type": "address"
            },
            {
              "internalType": "uint256",
              "name": "id",
              "type": "uint256"
            },
            {
              "internalType": "string",
              "name": "tweetText",
              "type": "string"
            },
            {
              "internalType": "string",
              "name": "tweetImg",
              "type": "string"
            },
            {
              "internalType": "bool",
              "name": "isDeleted",
              "type": "bool"
            },
            {
              "internalType": "uint256",
              "name": "timestamp",
              "type": "uint256"
            }
          ],
          "internalType": "struct UserContract.tweet[]",
          "name": "",
          "type": "tuple[]"
        }
      ],
      "stateMutability": "view",
      "type": "function"
    },
    {
      "inputs": [],
      "name": "getMyTweets",
      "outputs": [
        {
          "components": [
            {
              "internalType": "address",
              "name": "tweeter",
              "type": "address"
            },
            {
              "internalType": "uint256",
              "name": "id",
              "type": "uint256"
            },
            {
              "internalType": "string",
              "name": "tweetText",
              "type": "string"
            },
            {
              "internalType": "string",
              "name": "tweetImg",
              "type": "string"
            },
            {
              "internalType": "bool",
              "name": "isDeleted",
              "type": "bool"
            },
            {
              "internalType": "uint256",
              "name": "timestamp",
              "type": "uint256"
            }
          ],
          "internalType": "struct UserContract.tweet[]",
          "name": "",
          "type": "tuple[]"
        }
      ],
      "stateMutability": "view",
      "type": "function"
    },
    {
      "inputs": [
        {
          "internalType": "uint256",
          "name": "id",
          "type": "uint256"
        }
      ],
      "name": "getTweet",
      "outputs": [
        {
          "internalType": "string",
          "name": "",
          "type": "string"
        },
        {
          "internalType": "string",
          "name": "",
          "type": "string"
        },
        {
          "internalType": "address",
          "name": "",
          "type": "address"
        }
      ],
      "stateMutability": "view",
      "type": "function"
    },
    {
      "inputs": [
        {
          "internalType": "address",
          "name": "userAddress",
          "type": "address"
        }
      ],
      "name": "getUser",
      "outputs": [
        {
          "components": [
            {
              "internalType": "string",
              "name": "name",
              "type": "string"
            },
            {
              "internalType": "string",
              "name": "description",
              "type": "string"
            },
            {
              "internalType": "string",
              "name": "profileImg",
              "type": "string"
            },
            {
              "internalType": "string",
              "name": "profileBanner",
              "type": "string"
            }
          ],
          "internalType": "struct UserContract.user",
          "name": "",
          "type": "tuple"
        }
      ],
      "stateMutability": "view",
      "type": "function"
    },
    {
      "inputs": [],
      "name": "owner",
      "outputs": [
        {
          "internalType": "address",
          "name": "",
          "type": "address"
        }
      ],
      "stateMutability": "view",
      "type": "function"
    },
    {
      "inputs": [
        {
          "internalType": "string",
          "name": "newName",
          "type": "string"
        },
        {
          "internalType": "string",
          "name": "newDescription",
          "type": "string"
        },
        {
          "internalType": "string",
          "name": "newProfileImg",
          "type": "string"
        },
        {
          "internalType": "string",
          "name": "newProfileBanner",
          "type": "string"
        }
      ],
      "name": "updateUser",
      "outputs": [],
      "stateMutability": "nonpayable",
      "type": "function"
    }
  ],
  "bytecode": "0x608060405234801561000f575f80fd5b50335f806101000a81548173ffffffffffffffffffffffffffffffffffffffff021916908373ffffffffffffffffffffffffffffffffffffffff1602179055505f6001819055505f6002819055506123ae8061006a5f395ff3fe608060405234801561000f575f80fd5b50600436106100a7575f3560e01c806386fc06e11161006f57806386fc06e11461014f5780638da5cb5b1461016b578063aefedbc214610189578063b5c24a01146101a7578063c3ad5ecb146101c3578063f0312a37146101f5576100a7565b806310e96da5146100ab57806353256135146100c757806366e2ca54146100e55780636f77926b146101035780637e75b40814610133575b5f80fd5b6100c560048036038101906100c09190611589565b610211565b005b6100cf61032b565b6040516100dc91906117da565b60405180910390f35b6100ed610674565b6040516100fa91906118f5565b60405180910390f35b61011d60048036038101906101189190611915565b6108e8565b60405161012a91906119b5565b60405180910390f35b61014d60048036038101906101489190611b01565b610b7e565b005b61016960048036038101906101649190611bcb565b610c87565b005b610173610cef565b6040516101809190611c18565b60405180910390f35b610191610d12565b60405161019e91906117da565b60405180910390f35b6101c160048036038101906101bc9190611c31565b6110c5565b005b6101dd60048036038101906101d89190611d05565b611153565b6040516101ec93929190611d78565b60405180910390f35b61020f600480360381019061020a9190611bcb565b611352565b005b5f60055f60025481526020019081526020015f20905082815f015f6101000a81548173ffffffffffffffffffffffffffffffffffffffff021916908373ffffffffffffffffffffffffffffffffffffffff16021790555081816001015f6101000a81548173ffffffffffffffffffffffffffffffffffffffff021916908373ffffffffffffffffffffffffffffffffffffffff16021790555060025481600201819055505f816003015f6101000a81548160ff0219169083151502179055507f2f2749659293fec3fabe942176686b796ac8c11c8d352c76a730c56978f6c29483836002545f6040516103079493929190611dd9565b60405180910390a160025f81548092919061032190611e49565b9190505550505050565b60605f60015467ffffffffffffffff81111561034a576103496119dd565b5b60405190808252806020026020018201604052801561038357816020015b61037061145a565b8152602001906001900390816103685790505b5090505f805b6001548110156105bc575f151560035f8381526020019081526020015f206004015f9054906101000a900460ff161515036105a95760035f8281526020019081526020015f206040518060c00160405290815f82015f9054906101000a900473ffffffffffffffffffffffffffffffffffffffff1673ffffffffffffffffffffffffffffffffffffffff1673ffffffffffffffffffffffffffffffffffffffff1681526020016001820154815260200160028201805461044890611ebd565b80601f016020809104026020016040519081016040528092919081815260200182805461047490611ebd565b80156104bf5780601f10610496576101008083540402835291602001916104bf565b820191905f5260205f20905b8154815290600101906020018083116104a257829003601f168201915b505050505081526020016003820180546104d890611ebd565b80601f016020809104026020016040519081016040528092919081815260200182805461050490611ebd565b801561054f5780601f106105265761010080835404028352916020019161054f565b820191905f5260205f20905b81548152906001019060200180831161053257829003601f168201915b50505050508152602001600482015f9054906101000a900460ff1615151515815260200160058201548152505083838151811061058f5761058e611eed565b5b602002602001018190525081806105a590611e49565b9250505b80806105b490611e49565b915050610389565b505f8167ffffffffffffffff8111156105d8576105d76119dd565b5b60405190808252806020026020018201604052801561061157816020015b6105fe61145a565b8152602001906001900390816105f65790505b5090505f5b8281101561066a5783818151811061063157610630611eed565b5b602002602001015182828151811061064c5761064b611eed565b5b6020026020010181905250808061066290611e49565b915050610616565b5080935050505090565b60605f60025467ffffffffffffffff811115610693576106926119dd565b5b6040519080825280602002602001820160405280156106cc57816020015b6106b96114a4565b8152602001906001900390816106b15790505b5090505f805b600254811015610830575f151560055f8381526020019081526020015f206003015f9054906101000a900460ff1615150361081d5760055f8281526020019081526020015f206040518060800160405290815f82015f9054906101000a900473ffffffffffffffffffffffffffffffffffffffff1673ffffffffffffffffffffffffffffffffffffffff1673ffffffffffffffffffffffffffffffffffffffff168152602001600182015f9054906101000a900473ffffffffffffffffffffffffffffffffffffffff1673ffffffffffffffffffffffffffffffffffffffff1673ffffffffffffffffffffffffffffffffffffffff16815260200160028201548152602001600382015f9054906101000a900460ff16151515158152505083838151811061080357610802611eed565b5b6020026020010181905250818061081990611e49565b9250505b808061082890611e49565b9150506106d2565b505f8167ffffffffffffffff81111561084c5761084b6119dd565b5b60405190808252806020026020018201604052801561088557816020015b6108726114a4565b81526020019060019003908161086a5790505b5090505f5b828110156108de578381815181106108a5576108a4611eed565b5b60200260200101518282815181106108c0576108bf611eed565b5b602002602001018190525080806108d690611e49565b91505061088a565b5080935050505090565b6108f06114f6565b60045f8373ffffffffffffffffffffffffffffffffffffffff1673ffffffffffffffffffffffffffffffffffffffff1681526020019081526020015f206040518060800160405290815f8201805461094790611ebd565b80601f016020809104026020016040519081016040528092919081815260200182805461097390611ebd565b80156109be5780601f10610995576101008083540402835291602001916109be565b820191905f5260205f20905b8154815290600101906020018083116109a157829003601f168201915b505050505081526020016001820180546109d790611ebd565b80601f0160208091040260200160405190810160405280929190818152602001828054610a0390611ebd565b8015610a4e5780601f10610a2557610100808354040283529160200191610a4e565b820191905f5260205f20905b815481529060010190602001808311610a3157829003601f168201915b50505050508152602001600282018054610a6790611ebd565b80601f0160208091040260200160405190810160405280929190818152602001828054610a9390611ebd565b8015610ade5780601f10610ab557610100808354040283529160200191610ade565b820191905f5260205f20905b815481529060010190602001808311610ac157829003601f168201915b50505050508152602001600382018054610af790611ebd565b80601f0160208091040260200160405190810160405280929190818152602001828054610b2390611ebd565b8015610b6e5780601f10610b4557610100808354040283529160200191610b6e565b820191905f5260205f20905b815481529060010190602001808311610b5157829003601f168201915b5050505050815250509050919050565b5f60035f60015481526020019081526020015f20905082816002019081610ba591906120b7565b5081816003019081610bb791906120b7565b5033815f015f6101000a81548173ffffffffffffffffffffffffffffffffffffffff021916908373ffffffffffffffffffffffffffffffffffffffff16021790555060015481600101819055505f816004015f6101000a81548160ff0219169083151502179055504281600501819055507f38c5779ac46571418294ee2465c37dedbc6002dc9d04a4033cf23156da62fcd33360015485855f42604051610c6396959493929190612186565b60405180910390a160015f815480929190610c7d90611e49565b9190505550505050565b8060055f8481526020019081526020015f206003015f6101000a81548160ff0219169083151502179055507f51b13a92158a0d672532219ae9456c1ffaa81c5b8fcc9503865e4f40622ae34b8282604051610ce39291906121f3565b60405180910390a15050565b5f8054906101000a900473ffffffffffffffffffffffffffffffffffffffff1681565b60605f60015467ffffffffffffffff811115610d3157610d306119dd565b5b604051908082528060200260200182016040528015610d6a57816020015b610d5761145a565b815260200190600190039081610d4f5790505b5090505f805b60015481101561100d573373ffffffffffffffffffffffffffffffffffffffff1660035f8381526020019081526020015f205f015f9054906101000a900473ffffffffffffffffffffffffffffffffffffffff1673ffffffffffffffffffffffffffffffffffffffff16148015610e0a57505f151560035f8381526020019081526020015f206004015f9054906101000a900460ff161515145b15610ffa5760035f8281526020019081526020015f206040518060c00160405290815f82015f9054906101000a900473ffffffffffffffffffffffffffffffffffffffff1673ffffffffffffffffffffffffffffffffffffffff1673ffffffffffffffffffffffffffffffffffffffff16815260200160018201548152602001600282018054610e9990611ebd565b80601f0160208091040260200160405190810160405280929190818152602001828054610ec590611ebd565b8015610f105780601f10610ee757610100808354040283529160200191610f10565b820191905f5260205f20905b815481529060010190602001808311610ef357829003601f168201915b50505050508152602001600382018054610f2990611ebd565b80601f0160208091040260200160405190810160405280929190818152602001828054610f5590611ebd565b8015610fa05780601f10610f7757610100808354040283529160200191610fa0565b820191905f5260205f20905b815481529060010190602001808311610f8357829003601f168201915b50505050508152602001600482015f9054906101000a900460ff16151515158152602001600582015481525050838381518110610fe057610fdf611eed565b5b60200260200101819052508180610ff690611e49565b9250505b808061100590611e49565b915050610d70565b505f8167ffffffffffffffff811115611029576110286119dd565b5b60405190808252806020026020018201604052801561106257816020015b61104f61145a565b8152602001906001900390816110475790505b5090505f5b828110156110bb5783818151811061108257611081611eed565b5b602002602001015182828151811061109d5761109c611eed565b5b602002602001018190525080806110b390611e49565b915050611067565b5080935050505090565b5f60045f3373ffffffffffffffffffffffffffffffffffffffff1673ffffffffffffffffffffffffffffffffffffffff1681526020019081526020015f20905084815f01908161111591906120b7565b508381600101908161112791906120b7565b508281600201908161113991906120b7565b508181600301908161114b91906120b7565b505050505050565b6060805f600154841061119b576040517f08c379a000000000000000000000000000000000000000000000000000000000815260040161119290612264565b60405180910390fd5b5f60035f8681526020019081526020015f2090505f1515816004015f9054906101000a900460ff16151514611205576040517f08c379a00000000000000000000000000000000000000000000000000000000081526004016111fc906122cc565b60405180910390fd5b8060020181600301825f015f9054906101000a900473ffffffffffffffffffffffffffffffffffffffff1682805461123c90611ebd565b80601f016020809104026020016040519081016040528092919081815260200182805461126890611ebd565b80156112b35780601f1061128a576101008083540402835291602001916112b3565b820191905f5260205f20905b81548152906001019060200180831161129657829003601f168201915b505050505092508180546112c690611ebd565b80601f01602080910402602001604051908101604052809291908181526020018280546112f290611ebd565b801561133d5780601f106113145761010080835404028352916020019161133d565b820191905f5260205f20905b81548152906001019060200180831161132057829003601f168201915b50505050509150935093509350509193909250565b3373ffffffffffffffffffffffffffffffffffffffff1660035f8481526020019081526020015f205f015f9054906101000a900473ffffffffffffffffffffffffffffffffffffffff1673ffffffffffffffffffffffffffffffffffffffff16146113f2576040517f08c379a00000000000000000000000000000000000000000000000000000000081526004016113e99061235a565b60405180910390fd5b8060035f8481526020019081526020015f206004015f6101000a81548160ff0219169083151502179055507f90c03fdb3ba756f41c01353982e90798d484dbdcc5571fb39be23b1fee59490a828260405161144e9291906121f3565b60405180910390a15050565b6040518060c001604052805f73ffffffffffffffffffffffffffffffffffffffff1681526020015f815260200160608152602001606081526020015f151581526020015f81525090565b60405180608001604052805f73ffffffffffffffffffffffffffffffffffffffff1681526020015f73ffffffffffffffffffffffffffffffffffffffff1681526020015f81526020015f151581525090565b6040518060800160405280606081526020016060815260200160608152602001606081525090565b5f604051905090565b5f80fd5b5f80fd5b5f73ffffffffffffffffffffffffffffffffffffffff82169050919050565b5f6115588261152f565b9050919050565b6115688161154e565b8114611572575f80fd5b50565b5f813590506115838161155f565b92915050565b5f806040838503121561159f5761159e611527565b5b5f6115ac85828601611575565b92505060206115bd85828601611575565b9150509250929050565b5f81519050919050565b5f82825260208201905092915050565b5f819050602082019050919050565b6115f98161154e565b82525050565b5f819050919050565b611611816115ff565b82525050565b5f81519050919050565b5f82825260208201905092915050565b5f5b8381101561164e578082015181840152602081019050611633565b5f8484015250505050565b5f601f19601f8301169050919050565b5f61167382611617565b61167d8185611621565b935061168d818560208601611631565b61169681611659565b840191505092915050565b5f8115159050919050565b6116b5816116a1565b82525050565b5f60c083015f8301516116d05f8601826115f0565b5060208301516116e36020860182611608565b50604083015184820360408601526116fb8282611669565b915050606083015184820360608601526117158282611669565b915050608083015161172a60808601826116ac565b5060a083015161173d60a0860182611608565b508091505092915050565b5f61175383836116bb565b905092915050565b5f602082019050919050565b5f611771826115c7565b61177b81856115d1565b93508360208202850161178d856115e1565b805f5b858110156117c857848403895281516117a98582611748565b94506117b48361175b565b925060208a01995050600181019050611790565b50829750879550505050505092915050565b5f6020820190508181035f8301526117f28184611767565b905092915050565b5f81519050919050565b5f82825260208201905092915050565b5f819050602082019050919050565b608082015f8201516118375f8501826115f0565b50602082015161184a60208501826115f0565b50604082015161185d6040850182611608565b50606082015161187060608501826116ac565b50505050565b5f6118818383611823565b60808301905092915050565b5f602082019050919050565b5f6118a3826117fa565b6118ad8185611804565b93506118b883611814565b805f5b838110156118e85781516118cf8882611876565b97506118da8361188d565b9250506001810190506118bb565b5085935050505092915050565b5f6020820190508181035f83015261190d8184611899565b905092915050565b5f6020828403121561192a57611929611527565b5b5f61193784828501611575565b91505092915050565b5f608083015f8301518482035f86015261195a8282611669565b915050602083015184820360208601526119748282611669565b9150506040830151848203604086015261198e8282611669565b915050606083015184820360608601526119a88282611669565b9150508091505092915050565b5f6020820190508181035f8301526119cd8184611940565b905092915050565b5f80fd5b5f80fd5b7f4e487b71000000000000000000000000000000000000000000000000000000005f52604160045260245ffd5b611a1382611659565b810181811067ffffffffffffffff82111715611a3257611a316119dd565b5b80604052505050565b5f611a4461151e565b9050611a508282611a0a565b919050565b5f67ffffffffffffffff821115611a6f57611a6e6119dd565b5b611a7882611659565b9050602081019050919050565b828183375f83830152505050565b5f611aa5611aa084611a55565b611a3b565b905082815260208101848484011115611ac157611ac06119d9565b5b611acc848285611a85565b509392505050565b5f82601f830112611ae857611ae76119d5565b5b8135611af8848260208601611a93565b91505092915050565b5f8060408385031215611b1757611b16611527565b5b5f83013567ffffffffffffffff811115611b3457611b3361152b565b5b611b4085828601611ad4565b925050602083013567ffffffffffffffff811115611b6157611b6061152b565b5b611b6d85828601611ad4565b9150509250929050565b611b80816115ff565b8114611b8a575f80fd5b50565b5f81359050611b9b81611b77565b92915050565b611baa816116a1565b8114611bb4575f80fd5b50565b5f81359050611bc581611ba1565b92915050565b5f8060408385031215611be157611be0611527565b5b5f611bee85828601611b8d565b9250506020611bff85828601611bb7565b9150509250929050565b611c128161154e565b82525050565b5f602082019050611c2b5f830184611c09565b92915050565b5f805f8060808587031215611c4957611c48611527565b5b5f85013567ffffffffffffffff811115611c6657611c6561152b565b5b611c7287828801611ad4565b945050602085013567ffffffffffffffff811115611c9357611c9261152b565b5b611c9f87828801611ad4565b935050604085013567ffffffffffffffff811115611cc057611cbf61152b565b5b611ccc87828801611ad4565b925050606085013567ffffffffffffffff811115611ced57611cec61152b565b5b611cf987828801611ad4565b91505092959194509250565b5f60208284031215611d1a57611d19611527565b5b5f611d2784828501611b8d565b91505092915050565b5f82825260208201905092915050565b5f611d4a82611617565b611d548185611d30565b9350611d64818560208601611631565b611d6d81611659565b840191505092915050565b5f6060820190508181035f830152611d908186611d40565b90508181036020830152611da48185611d40565b9050611db36040830184611c09565b949350505050565b611dc4816115ff565b82525050565b611dd3816116a1565b82525050565b5f608082019050611dec5f830187611c09565b611df96020830186611c09565b611e066040830185611dbb565b611e136060830184611dca565b95945050505050565b7f4e487b71000000000000000000000000000000000000000000000000000000005f52601160045260245ffd5b5f611e53826115ff565b91507fffffffffffffffffffffffffffffffffffffffffffffffffffffffffffffffff8203611e8557611e84611e1c565b5b600182019050919050565b7f4e487b71000000000000000000000000000000000000000000000000000000005f52602260045260245ffd5b5f6002820490506001821680611ed457607f821691505b602082108103611ee757611ee6611e90565b5b50919050565b7f4e487b71000000000000000000000000000000000000000000000000000000005f52603260045260245ffd5b5f819050815f5260205f209050919050565b5f6020601f8301049050919050565b5f82821b905092915050565b5f60088302611f767fffffffffffffffffffffffffffffffffffffffffffffffffffffffffffffffff82611f3b565b611f808683611f3b565b95508019841693508086168417925050509392505050565b5f819050919050565b5f611fbb611fb6611fb1846115ff565b611f98565b6115ff565b9050919050565b5f819050919050565b611fd483611fa1565b611fe8611fe082611fc2565b848454611f47565b825550505050565b5f90565b611ffc611ff0565b612007818484611fcb565b505050565b5b8181101561202a5761201f5f82611ff4565b60018101905061200d565b5050565b601f82111561206f5761204081611f1a565b61204984611f2c565b81016020851015612058578190505b61206c61206485611f2c565b83018261200c565b50505b505050565b5f82821c905092915050565b5f61208f5f1984600802612074565b1980831691505092915050565b5f6120a78383612080565b9150826002028217905092915050565b6120c082611617565b67ffffffffffffffff8111156120d9576120d86119dd565b5b6120e38254611ebd565b6120ee82828561202e565b5f60209050601f83116001811461211f575f841561210d578287015190505b612117858261209c565b86555061217e565b601f19841661212d86611f1a565b5f5b828110156121545784890151825560018201915060208501945060208101905061212f565b86831015612171578489015161216d601f891682612080565b8355505b6001600288020188555050505b505050505050565b5f60c0820190506121995f830189611c09565b6121a66020830188611dbb565b81810360408301526121b88187611d40565b905081810360608301526121cc8186611d40565b90506121db6080830185611dca565b6121e860a0830184611dbb565b979650505050505050565b5f6040820190506122065f830185611dbb565b6122136020830184611dca565b9392505050565b7f4e6f2073756368205477656574000000000000000000000000000000000000005f82015250565b5f61224e600d83611d30565b91506122598261221a565b602082019050919050565b5f6020820190508181035f83015261227b81612242565b9050919050565b7f54776565742069732064656c65746564000000000000000000000000000000005f82015250565b5f6122b6601083611d30565b91506122c182612282565b602082019050919050565b5f6020820190508181035f8301526122e3816122aa565b9050919050565b7f596f752063616e206f6e6c792064656c65746520796f7572206f776e207477655f8201527f6574000000000000000000000000000000000000000000000000000000000000602082015250565b5f612344602283611d30565b915061234f826122ea565b604082019050919050565b5f6020820190508181035f83015261237181612338565b905091905056fea2646970667358221220522f6303d24b5b61edae2fa0e43dce063049fda94280e99d1f4bffe35d9f394e64736f6c63430008140033",
  "linkReferences": {},
  "deployedLinkReferences": {}
}