{
  "_format": "hh-sol-artifact-1",
  "contractName": "UserContract",
  "sourceName": "contracts/UserContract.sol",
  "abi": [
    {
      "inputs": [],
      "stateMutability": "nonpayable",
      "type": "constructor"
    },
    {
      "anonymous": false,
      "inputs": [
        {
          "indexed": false,
          "internalType": "uint256",
          "name": "id",
          "type": "uint256"
        },
        {
          "indexed": false,
          "internalType": "bool",
          "name": "isDeleted",
          "type": "bool"
        }
      ],
      "name": "TweetDeleted",
      "type": "event"
    },
    {
      "anonymous": false,
      "inputs": [
        {
          "indexed": false,
          "internalType": "address",
          "name": "tweeter",
          "type": "address"
        },
        {
          "indexed": false,
          "internalType": "uint256",
          "name": "id",
          "type": "uint256"
        },
        {
          "indexed": false,
          "internalType": "string",
          "name": "tweetText",
          "type": "string"
        },
        {
          "indexed": false,
          "internalType": "string",
          "name": "tweetImg",
          "type": "string"
        },
        {
          "indexed": false,
          "internalType": "bool",
          "name": "isDeleted",
          "type": "bool"
        },
        {
          "indexed": false,
          "internalType": "uint256",
          "name": "timestamp",
          "type": "uint256"
        }
      ],
      "name": "tweetCreated",
      "type": "event"
    },
    {
      "inputs": [
        {
          "internalType": "string",
          "name": "tweetText",
          "type": "string"
        },
        {
          "internalType": "string",
          "name": "tweetImg",
          "type": "string"
        }
      ],
      "name": "addTweet",
      "outputs": [],
      "stateMutability": "nonpayable",
      "type": "function"
    },
    {
      "inputs": [
        {
          "internalType": "uint256",
          "name": "tweetId",
          "type": "uint256"
        },
        {
          "internalType": "bool",
          "name": "isDeleted",
          "type": "bool"
        }
      ],
      "name": "deleteTweet",
      "outputs": [],
      "stateMutability": "nonpayable",
      "type": "function"
    },
    {
      "inputs": [],
      "name": "getAllTweets",
      "outputs": [
        {
          "components": [
            {
              "internalType": "address",
              "name": "tweeter",
              "type": "address"
            },
            {
              "internalType": "uint256",
              "name": "id",
              "type": "uint256"
            },
            {
              "internalType": "string",
              "name": "tweetText",
              "type": "string"
            },
            {
              "internalType": "string",
              "name": "tweetImg",
              "type": "string"
            },
            {
              "internalType": "bool",
              "name": "isDeleted",
              "type": "bool"
            },
            {
              "internalType": "uint256",
              "name": "timestamp",
              "type": "uint256"
            }
          ],
          "internalType": "struct UserContract.tweet[]",
          "name": "",
          "type": "tuple[]"
        }
      ],
      "stateMutability": "view",
      "type": "function"
    },
    {
      "inputs": [],
      "name": "getMyTweets",
      "outputs": [
        {
          "components": [
            {
              "internalType": "address",
              "name": "tweeter",
              "type": "address"
            },
            {
              "internalType": "uint256",
              "name": "id",
              "type": "uint256"
            },
            {
              "internalType": "string",
              "name": "tweetText",
              "type": "string"
            },
            {
              "internalType": "string",
              "name": "tweetImg",
              "type": "string"
            },
            {
              "internalType": "bool",
              "name": "isDeleted",
              "type": "bool"
            },
            {
              "internalType": "uint256",
              "name": "timestamp",
              "type": "uint256"
            }
          ],
          "internalType": "struct UserContract.tweet[]",
          "name": "",
          "type": "tuple[]"
        }
      ],
      "stateMutability": "view",
      "type": "function"
    },
    {
      "inputs": [
        {
          "internalType": "uint256",
          "name": "id",
          "type": "uint256"
        }
      ],
      "name": "getTweet",
      "outputs": [
        {
          "internalType": "string",
          "name": "",
          "type": "string"
        },
        {
          "internalType": "string",
          "name": "",
          "type": "string"
        },
        {
          "internalType": "address",
          "name": "",
          "type": "address"
        }
      ],
      "stateMutability": "view",
      "type": "function"
    },
    {
      "inputs": [
        {
          "internalType": "address",
          "name": "userAddress",
          "type": "address"
        }
      ],
      "name": "getUser",
      "outputs": [
        {
          "components": [
            {
              "internalType": "string",
              "name": "name",
              "type": "string"
            },
            {
              "internalType": "string",
              "name": "description",
              "type": "string"
            },
            {
              "internalType": "string",
              "name": "profileImg",
              "type": "string"
            },
            {
              "internalType": "string",
              "name": "profileBanner",
              "type": "string"
            }
          ],
          "internalType": "struct UserContract.user",
          "name": "",
          "type": "tuple"
        }
      ],
      "stateMutability": "view",
      "type": "function"
    },
    {
      "inputs": [],
      "name": "owner",
      "outputs": [
        {
          "internalType": "address",
          "name": "",
          "type": "address"
        }
      ],
      "stateMutability": "view",
      "type": "function"
    },
    {
      "inputs": [
        {
          "internalType": "string",
          "name": "newName",
          "type": "string"
        },
        {
          "internalType": "string",
          "name": "newDescription",
          "type": "string"
        },
        {
          "internalType": "string",
          "name": "newProfileImg",
          "type": "string"
        },
        {
          "internalType": "string",
          "name": "newProfileBanner",
          "type": "string"
        }
      ],
      "name": "updateUser",
      "outputs": [],
      "stateMutability": "nonpayable",
      "type": "function"
    }
  ],
  "bytecode": "0x608060405234801561000f575f80fd5b50335f806101000a81548173ffffffffffffffffffffffffffffffffffffffff021916908373ffffffffffffffffffffffffffffffffffffffff1602179055505f600181905550611d53806100635f395ff3fe608060405234801561000f575f80fd5b5060043610610086575f3560e01c8063aefedbc211610059578063aefedbc214610112578063b5c24a0114610130578063c3ad5ecb1461014c578063f0312a371461017e57610086565b8063532561351461008a5780636f77926b146100a85780637e75b408146100d85780638da5cb5b146100f4575b5f80fd5b61009261019a565b60405161009f91906112a2565b60405180910390f35b6100c260048036038101906100bd91906112fd565b6104e3565b6040516100cf919061139d565b60405180910390f35b6100f260048036038101906100ed91906114e9565b610779565b005b6100fc610882565b604051610109919061156e565b60405180910390f35b61011a6108a5565b60405161012791906112a2565b60405180910390f35b61014a60048036038101906101459190611587565b610c58565b005b61016660048036038101906101619190611685565b610ce6565b604051610175939291906116f8565b60405180910390f35b61019860048036038101906101939190611765565b610ee5565b005b60605f60015467ffffffffffffffff8111156101b9576101b86113c5565b5b6040519080825280602002602001820160405280156101f257816020015b6101df610fed565b8152602001906001900390816101d75790505b5090505f805b60015481101561042b575f151560025f8381526020019081526020015f206004015f9054906101000a900460ff161515036104185760025f8281526020019081526020015f206040518060c00160405290815f82015f9054906101000a900473ffffffffffffffffffffffffffffffffffffffff1673ffffffffffffffffffffffffffffffffffffffff1673ffffffffffffffffffffffffffffffffffffffff168152602001600182015481526020016002820180546102b7906117d0565b80601f01602080910402602001604051908101604052809291908181526020018280546102e3906117d0565b801561032e5780601f106103055761010080835404028352916020019161032e565b820191905f5260205f20905b81548152906001019060200180831161031157829003601f168201915b50505050508152602001600382018054610347906117d0565b80601f0160208091040260200160405190810160405280929190818152602001828054610373906117d0565b80156103be5780601f10610395576101008083540402835291602001916103be565b820191905f5260205f20905b8154815290600101906020018083116103a157829003601f168201915b50505050508152602001600482015f9054906101000a900460ff161515151581526020016005820154815250508383815181106103fe576103fd611800565b5b602002602001018190525081806104149061185a565b9250505b80806104239061185a565b9150506101f8565b505f8167ffffffffffffffff811115610447576104466113c5565b5b60405190808252806020026020018201604052801561048057816020015b61046d610fed565b8152602001906001900390816104655790505b5090505f5b828110156104d9578381815181106104a05761049f611800565b5b60200260200101518282815181106104bb576104ba611800565b5b602002602001018190525080806104d19061185a565b915050610485565b5080935050505090565b6104eb611037565b60035f8373ffffffffffffffffffffffffffffffffffffffff1673ffffffffffffffffffffffffffffffffffffffff1681526020019081526020015f206040518060800160405290815f82018054610542906117d0565b80601f016020809104026020016040519081016040528092919081815260200182805461056e906117d0565b80156105b95780601f10610590576101008083540402835291602001916105b9565b820191905f5260205f20905b81548152906001019060200180831161059c57829003601f168201915b505050505081526020016001820180546105d2906117d0565b80601f01602080910402602001604051908101604052809291908181526020018280546105fe906117d0565b80156106495780601f1061062057610100808354040283529160200191610649565b820191905f5260205f20905b81548152906001019060200180831161062c57829003601f168201915b50505050508152602001600282018054610662906117d0565b80601f016020809104026020016040519081016040528092919081815260200182805461068e906117d0565b80156106d95780601f106106b0576101008083540402835291602001916106d9565b820191905f5260205f20905b8154815290600101906020018083116106bc57829003601f168201915b505050505081526020016003820180546106f2906117d0565b80601f016020809104026020016040519081016040528092919081815260200182805461071e906117d0565b80156107695780601f1061074057610100808354040283529160200191610769565b820191905f5260205f20905b81548152906001019060200180831161074c57829003601f168201915b5050505050815250509050919050565b5f60025f60015481526020019081526020015f209050828160020190816107a09190611a3e565b50818160030190816107b29190611a3e565b5033815f015f6101000a81548173ffffffffffffffffffffffffffffffffffffffff021916908373ffffffffffffffffffffffffffffffffffffffff16021790555060015481600101819055505f816004015f6101000a81548160ff0219169083151502179055504281600501819055507f38c5779ac46571418294ee2465c37dedbc6002dc9d04a4033cf23156da62fcd33360015485855f4260405161085e96959493929190611b2b565b60405180910390a160015f8154809291906108789061185a565b9190505550505050565b5f8054906101000a900473ffffffffffffffffffffffffffffffffffffffff1681565b60605f60015467ffffffffffffffff8111156108c4576108c36113c5565b5b6040519080825280602002602001820160405280156108fd57816020015b6108ea610fed565b8152602001906001900390816108e25790505b5090505f805b600154811015610ba0573373ffffffffffffffffffffffffffffffffffffffff1660025f8381526020019081526020015f205f015f9054906101000a900473ffffffffffffffffffffffffffffffffffffffff1673ffffffffffffffffffffffffffffffffffffffff1614801561099d57505f151560025f8381526020019081526020015f206004015f9054906101000a900460ff161515145b15610b8d5760025f8281526020019081526020015f206040518060c00160405290815f82015f9054906101000a900473ffffffffffffffffffffffffffffffffffffffff1673ffffffffffffffffffffffffffffffffffffffff1673ffffffffffffffffffffffffffffffffffffffff16815260200160018201548152602001600282018054610a2c906117d0565b80601f0160208091040260200160405190810160405280929190818152602001828054610a58906117d0565b8015610aa35780601f10610a7a57610100808354040283529160200191610aa3565b820191905f5260205f20905b815481529060010190602001808311610a8657829003601f168201915b50505050508152602001600382018054610abc906117d0565b80601f0160208091040260200160405190810160405280929190818152602001828054610ae8906117d0565b8015610b335780601f10610b0a57610100808354040283529160200191610b33565b820191905f5260205f20905b815481529060010190602001808311610b1657829003601f168201915b50505050508152602001600482015f9054906101000a900460ff16151515158152602001600582015481525050838381518110610b7357610b72611800565b5b60200260200101819052508180610b899061185a565b9250505b8080610b989061185a565b915050610903565b505f8167ffffffffffffffff811115610bbc57610bbb6113c5565b5b604051908082528060200260200182016040528015610bf557816020015b610be2610fed565b815260200190600190039081610bda5790505b5090505f5b82811015610c4e57838181518110610c1557610c14611800565b5b6020026020010151828281518110610c3057610c2f611800565b5b60200260200101819052508080610c469061185a565b915050610bfa565b5080935050505090565b5f60035f3373ffffffffffffffffffffffffffffffffffffffff1673ffffffffffffffffffffffffffffffffffffffff1681526020019081526020015f20905084815f019081610ca89190611a3e565b5083816001019081610cba9190611a3e565b5082816002019081610ccc9190611a3e565b5081816003019081610cde9190611a3e565b505050505050565b6060805f6001548410610d2e576040517f08c379a0000000000000000000000000000000000000000000000000000000008152600401610d2590611be2565b60405180910390fd5b5f60025f8681526020019081526020015f2090505f1515816004015f9054906101000a900460ff16151514610d98576040517f08c379a0000000000000000000000000000000000000000000000000000000008152600401610d8f90611c4a565b60405180910390fd5b8060020181600301825f015f9054906101000a900473ffffffffffffffffffffffffffffffffffffffff16828054610dcf906117d0565b80601f0160208091040260200160405190810160405280929190818152602001828054610dfb906117d0565b8015610e465780601f10610e1d57610100808354040283529160200191610e46565b820191905f5260205f20905b815481529060010190602001808311610e2957829003601f168201915b50505050509250818054610e59906117d0565b80601f0160208091040260200160405190810160405280929190818152602001828054610e85906117d0565b8015610ed05780601f10610ea757610100808354040283529160200191610ed0565b820191905f5260205f20905b815481529060010190602001808311610eb357829003601f168201915b50505050509150935093509350509193909250565b3373ffffffffffffffffffffffffffffffffffffffff1660025f8481526020019081526020015f205f015f9054906101000a900473ffffffffffffffffffffffffffffffffffffffff1673ffffffffffffffffffffffffffffffffffffffff1614610f85576040517f08c379a0000000000000000000000000000000000000000000000000000000008152600401610f7c90611cd8565b60405180910390fd5b8060025f8481526020019081526020015f206004015f6101000a81548160ff0219169083151502179055507f90c03fdb3ba756f41c01353982e90798d484dbdcc5571fb39be23b1fee59490a8282604051610fe1929190611cf6565b60405180910390a15050565b6040518060c001604052805f73ffffffffffffffffffffffffffffffffffffffff1681526020015f815260200160608152602001606081526020015f151581526020015f81525090565b6040518060800160405280606081526020016060815260200160608152602001606081525090565b5f81519050919050565b5f82825260208201905092915050565b5f819050602082019050919050565b5f73ffffffffffffffffffffffffffffffffffffffff82169050919050565b5f6110b182611088565b9050919050565b6110c1816110a7565b82525050565b5f819050919050565b6110d9816110c7565b82525050565b5f81519050919050565b5f82825260208201905092915050565b5f5b838110156111165780820151818401526020810190506110fb565b5f8484015250505050565b5f601f19601f8301169050919050565b5f61113b826110df565b61114581856110e9565b93506111558185602086016110f9565b61115e81611121565b840191505092915050565b5f8115159050919050565b61117d81611169565b82525050565b5f60c083015f8301516111985f8601826110b8565b5060208301516111ab60208601826110d0565b50604083015184820360408601526111c38282611131565b915050606083015184820360608601526111dd8282611131565b91505060808301516111f26080860182611174565b5060a083015161120560a08601826110d0565b508091505092915050565b5f61121b8383611183565b905092915050565b5f602082019050919050565b5f6112398261105f565b6112438185611069565b93508360208202850161125585611079565b805f5b8581101561129057848403895281516112718582611210565b945061127c83611223565b925060208a01995050600181019050611258565b50829750879550505050505092915050565b5f6020820190508181035f8301526112ba818461122f565b905092915050565b5f604051905090565b5f80fd5b5f80fd5b6112dc816110a7565b81146112e6575f80fd5b50565b5f813590506112f7816112d3565b92915050565b5f60208284031215611312576113116112cb565b5b5f61131f848285016112e9565b91505092915050565b5f608083015f8301518482035f8601526113428282611131565b9150506020830151848203602086015261135c8282611131565b915050604083015184820360408601526113768282611131565b915050606083015184820360608601526113908282611131565b9150508091505092915050565b5f6020820190508181035f8301526113b58184611328565b905092915050565b5f80fd5b5f80fd5b7f4e487b71000000000000000000000000000000000000000000000000000000005f52604160045260245ffd5b6113fb82611121565b810181811067ffffffffffffffff8211171561141a576114196113c5565b5b80604052505050565b5f61142c6112c2565b905061143882826113f2565b919050565b5f67ffffffffffffffff821115611457576114566113c5565b5b61146082611121565b9050602081019050919050565b828183375f83830152505050565b5f61148d6114888461143d565b611423565b9050828152602081018484840111156114a9576114a86113c1565b5b6114b484828561146d565b509392505050565b5f82601f8301126114d0576114cf6113bd565b5b81356114e084826020860161147b565b91505092915050565b5f80604083850312156114ff576114fe6112cb565b5b5f83013567ffffffffffffffff81111561151c5761151b6112cf565b5b611528858286016114bc565b925050602083013567ffffffffffffffff811115611549576115486112cf565b5b611555858286016114bc565b9150509250929050565b611568816110a7565b82525050565b5f6020820190506115815f83018461155f565b92915050565b5f805f806080858703121561159f5761159e6112cb565b5b5f85013567ffffffffffffffff8111156115bc576115bb6112cf565b5b6115c8878288016114bc565b945050602085013567ffffffffffffffff8111156115e9576115e86112cf565b5b6115f5878288016114bc565b935050604085013567ffffffffffffffff811115611616576116156112cf565b5b611622878288016114bc565b925050606085013567ffffffffffffffff811115611643576116426112cf565b5b61164f878288016114bc565b91505092959194509250565b611664816110c7565b811461166e575f80fd5b50565b5f8135905061167f8161165b565b92915050565b5f6020828403121561169a576116996112cb565b5b5f6116a784828501611671565b91505092915050565b5f82825260208201905092915050565b5f6116ca826110df565b6116d481856116b0565b93506116e48185602086016110f9565b6116ed81611121565b840191505092915050565b5f6060820190508181035f83015261171081866116c0565b9050818103602083015261172481856116c0565b9050611733604083018461155f565b949350505050565b61174481611169565b811461174e575f80fd5b50565b5f8135905061175f8161173b565b92915050565b5f806040838503121561177b5761177a6112cb565b5b5f61178885828601611671565b925050602061179985828601611751565b9150509250929050565b7f4e487b71000000000000000000000000000000000000000000000000000000005f52602260045260245ffd5b5f60028204905060018216806117e757607f821691505b6020821081036117fa576117f96117a3565b5b50919050565b7f4e487b71000000000000000000000000000000000000000000000000000000005f52603260045260245ffd5b7f4e487b71000000000000000000000000000000000000000000000000000000005f52601160045260245ffd5b5f611864826110c7565b91507fffffffffffffffffffffffffffffffffffffffffffffffffffffffffffffffff82036118965761189561182d565b5b600182019050919050565b5f819050815f5260205f209050919050565b5f6020601f8301049050919050565b5f82821b905092915050565b5f600883026118fd7fffffffffffffffffffffffffffffffffffffffffffffffffffffffffffffffff826118c2565b61190786836118c2565b95508019841693508086168417925050509392505050565b5f819050919050565b5f61194261193d611938846110c7565b61191f565b6110c7565b9050919050565b5f819050919050565b61195b83611928565b61196f61196782611949565b8484546118ce565b825550505050565b5f90565b611983611977565b61198e818484611952565b505050565b5b818110156119b1576119a65f8261197b565b600181019050611994565b5050565b601f8211156119f6576119c7816118a1565b6119d0846118b3565b810160208510156119df578190505b6119f36119eb856118b3565b830182611993565b50505b505050565b5f82821c905092915050565b5f611a165f19846008026119fb565b1980831691505092915050565b5f611a2e8383611a07565b9150826002028217905092915050565b611a47826110df565b67ffffffffffffffff811115611a6057611a5f6113c5565b5b611a6a82546117d0565b611a758282856119b5565b5f60209050601f831160018114611aa6575f8415611a94578287015190505b611a9e8582611a23565b865550611b05565b601f198416611ab4866118a1565b5f5b82811015611adb57848901518255600182019150602085019450602081019050611ab6565b86831015611af85784890151611af4601f891682611a07565b8355505b6001600288020188555050505b505050505050565b611b16816110c7565b82525050565b611b2581611169565b82525050565b5f60c082019050611b3e5f83018961155f565b611b4b6020830188611b0d565b8181036040830152611b5d81876116c0565b90508181036060830152611b7181866116c0565b9050611b806080830185611b1c565b611b8d60a0830184611b0d565b979650505050505050565b7f4e6f2073756368205477656574000000000000000000000000000000000000005f82015250565b5f611bcc600d836116b0565b9150611bd782611b98565b602082019050919050565b5f6020820190508181035f830152611bf981611bc0565b9050919050565b7f54776565742069732064656c65746564000000000000000000000000000000005f82015250565b5f611c346010836116b0565b9150611c3f82611c00565b602082019050919050565b5f6020820190508181035f830152611c6181611c28565b9050919050565b7f596f752063616e206f6e6c792064656c65746520796f7572206f776e207477655f8201527f6574000000000000000000000000000000000000000000000000000000000000602082015250565b5f611cc26022836116b0565b9150611ccd82611c68565b604082019050919050565b5f6020820190508181035f830152611cef81611cb6565b9050919050565b5f604082019050611d095f830185611b0d565b611d166020830184611b1c565b939250505056fea264697066735822122055b1bcf5d4ae259668545917375da32f94eef8db53a334ccbb0976ec415e7a7264736f6c63430008140033",
  "linkReferences": {},
  "deployedLinkReferences": {}
}