{
  "_format": "hh-sol-artifact-1",
  "contractName": "UserContract",
  "sourceName": "contracts/UserContract.sol",
  "abi": [
    {
      "inputs": [
        {
          "internalType": "string",
          "name": "_pointer",
          "type": "string"
        },
        {
          "internalType": "string",
          "name": "_signKey",
          "type": "string"
        }
      ],
      "stateMutability": "nonpayable",
      "type": "constructor"
    },
    {
      "anonymous": false,
      "inputs": [
        {
          "indexed": true,
          "internalType": "address",
          "name": "previousOwner",
          "type": "address"
        },
        {
          "indexed": true,
          "internalType": "address",
          "name": "newOwner",
          "type": "address"
        }
      ],
      "name": "OwnershipTransferred",
      "type": "event"
    },
    {
      "anonymous": false,
      "inputs": [
        {
          "indexed": false,
          "internalType": "address",
          "name": "walletAddress",
          "type": "address"
        },
        {
          "indexed": false,
          "internalType": "address",
          "name": "contractAddress",
          "type": "address"
        },
        {
          "indexed": false,
          "internalType": "uint256",
          "name": "id",
          "type": "uint256"
        },
        {
          "indexed": false,
          "internalType": "bool",
          "name": "isDeleted",
          "type": "bool"
        }
      ],
      "name": "friendAdded",
      "type": "event"
    },
    {
      "anonymous": false,
      "inputs": [
        {
          "indexed": false,
          "internalType": "uint256",
          "name": "id",
          "type": "uint256"
        },
        {
          "indexed": false,
          "internalType": "bool",
          "name": "isDeleted",
          "type": "bool"
        }
      ],
      "name": "friendDeleted",
      "type": "event"
    },
    {
      "inputs": [
        {
          "internalType": "address",
          "name": "walletAddress",
          "type": "address"
        },
        {
          "internalType": "address",
          "name": "contractAddress",
          "type": "address"
        }
      ],
      "name": "addFriend",
      "outputs": [],
      "stateMutability": "nonpayable",
      "type": "function"
    },
    {
      "inputs": [
        {
          "internalType": "uint256",
          "name": "friendId",
          "type": "uint256"
        },
        {
          "internalType": "bool",
          "name": "isDeleted",
          "type": "bool"
        }
      ],
      "name": "deleteFriend",
      "outputs": [],
      "stateMutability": "nonpayable",
      "type": "function"
    },
    {
      "inputs": [],
      "name": "getAllFriends",
      "outputs": [
        {
          "components": [
            {
              "internalType": "address",
              "name": "walletAddress",
              "type": "address"
            },
            {
              "internalType": "address",
              "name": "contractAddress",
              "type": "address"
            },
            {
              "internalType": "uint256",
              "name": "id",
              "type": "uint256"
            },
            {
              "internalType": "bool",
              "name": "isDeleted",
              "type": "bool"
            }
          ],
          "internalType": "struct UserContract.Friend[]",
          "name": "",
          "type": "tuple[]"
        }
      ],
      "stateMutability": "view",
      "type": "function"
    },
    {
      "inputs": [],
      "name": "getSignKey",
      "outputs": [
        {
          "internalType": "string",
          "name": "",
          "type": "string"
        }
      ],
      "stateMutability": "view",
      "type": "function"
    },
    {
      "inputs": [],
      "name": "getTweetsPointer",
      "outputs": [
        {
          "internalType": "string",
          "name": "",
          "type": "string"
        }
      ],
      "stateMutability": "view",
      "type": "function"
    },
    {
      "inputs": [
        {
          "internalType": "address",
          "name": "userAddress",
          "type": "address"
        }
      ],
      "name": "getUser",
      "outputs": [
        {
          "components": [
            {
              "internalType": "string",
              "name": "name",
              "type": "string"
            },
            {
              "internalType": "string",
              "name": "description",
              "type": "string"
            },
            {
              "internalType": "string",
              "name": "profileImg",
              "type": "string"
            },
            {
              "internalType": "string",
              "name": "profileBanner",
              "type": "string"
            }
          ],
          "internalType": "struct UserContract.user",
          "name": "",
          "type": "tuple"
        }
      ],
      "stateMutability": "view",
      "type": "function"
    },
    {
      "inputs": [],
      "name": "owner",
      "outputs": [
        {
          "internalType": "address",
          "name": "",
          "type": "address"
        }
      ],
      "stateMutability": "view",
      "type": "function"
    },
    {
      "inputs": [],
      "name": "renounceOwnership",
      "outputs": [],
      "stateMutability": "nonpayable",
      "type": "function"
    },
    {
      "inputs": [
        {
          "internalType": "address",
          "name": "newOwner",
          "type": "address"
        }
      ],
      "name": "transferOwnership",
      "outputs": [],
      "stateMutability": "nonpayable",
      "type": "function"
    },
    {
      "inputs": [
        {
          "internalType": "string",
          "name": "newName",
          "type": "string"
        },
        {
          "internalType": "string",
          "name": "newDescription",
          "type": "string"
        },
        {
          "internalType": "string",
          "name": "newProfileImg",
          "type": "string"
        },
        {
          "internalType": "string",
          "name": "newProfileBanner",
          "type": "string"
        }
      ],
      "name": "updateUser",
      "outputs": [],
      "stateMutability": "nonpayable",
      "type": "function"
    }
  ],
  "bytecode": "0x608060405234801562000010575f80fd5b5060405162001ea938038062001ea98339818101604052810190620000369190620002d6565b620000566200004a6200008960201b60201c565b6200009060201b60201c565b5f60018190555081600290816200006e919062000590565b50806003908162000080919062000590565b50505062000674565b5f33905090565b5f805f9054906101000a900473ffffffffffffffffffffffffffffffffffffffff169050815f806101000a81548173ffffffffffffffffffffffffffffffffffffffff021916908373ffffffffffffffffffffffffffffffffffffffff1602179055508173ffffffffffffffffffffffffffffffffffffffff168173ffffffffffffffffffffffffffffffffffffffff167f8be0079c531659141344cd1fd0a4f28419497f9722a3daafe3b4186f6b6457e060405160405180910390a35050565b5f604051905090565b5f80fd5b5f80fd5b5f80fd5b5f80fd5b5f601f19601f8301169050919050565b7f4e487b71000000000000000000000000000000000000000000000000000000005f52604160045260245ffd5b620001b2826200016a565b810181811067ffffffffffffffff82111715620001d457620001d36200017a565b5b80604052505050565b5f620001e862000151565b9050620001f68282620001a7565b919050565b5f67ffffffffffffffff8211156200021857620002176200017a565b5b62000223826200016a565b9050602081019050919050565b5f5b838110156200024f57808201518184015260208101905062000232565b5f8484015250505050565b5f620002706200026a84620001fb565b620001dd565b9050828152602081018484840111156200028f576200028e62000166565b5b6200029c84828562000230565b509392505050565b5f82601f830112620002bb57620002ba62000162565b5b8151620002cd8482602086016200025a565b91505092915050565b5f8060408385031215620002ef57620002ee6200015a565b5b5f83015167ffffffffffffffff8111156200030f576200030e6200015e565b5b6200031d85828601620002a4565b925050602083015167ffffffffffffffff8111156200034157620003406200015e565b5b6200034f85828601620002a4565b9150509250929050565b5f81519050919050565b7f4e487b71000000000000000000000000000000000000000000000000000000005f52602260045260245ffd5b5f6002820490506001821680620003a857607f821691505b602082108103620003be57620003bd62000363565b5b50919050565b5f819050815f5260205f209050919050565b5f6020601f8301049050919050565b5f82821b905092915050565b5f60088302620004227fffffffffffffffffffffffffffffffffffffffffffffffffffffffffffffffff82620003e5565b6200042e8683620003e5565b95508019841693508086168417925050509392505050565b5f819050919050565b5f819050919050565b5f62000478620004726200046c8462000446565b6200044f565b62000446565b9050919050565b5f819050919050565b620004938362000458565b620004ab620004a2826200047f565b848454620003f1565b825550505050565b5f90565b620004c1620004b3565b620004ce81848462000488565b505050565b5b81811015620004f557620004e95f82620004b7565b600181019050620004d4565b5050565b601f82111562000544576200050e81620003c4565b6200051984620003d6565b8101602085101562000529578190505b620005416200053885620003d6565b830182620004d3565b50505b505050565b5f82821c905092915050565b5f620005665f198460080262000549565b1980831691505092915050565b5f62000580838362000555565b9150826002028217905092915050565b6200059b8262000359565b67ffffffffffffffff811115620005b757620005b66200017a565b5b620005c3825462000390565b620005d0828285620004f9565b5f60209050601f83116001811462000606575f8415620005f1578287015190505b620005fd858262000573565b8655506200066c565b601f1984166200061686620003c4565b5f5b828110156200063f5784890151825560018201915060208501945060208101905062000618565b868310156200065f57848901516200065b601f89168262000555565b8355505b6001600288020188555050505b505050505050565b61182780620006825f395ff3fe608060405234801561000f575f80fd5b506004361061009c575f3560e01c806386fc06e11161006457806386fc06e1146101325780638da5cb5b1461014e578063a4a8ce4a1461016c578063b5c24a011461018a578063f2fde38b146101a65761009c565b806310e96da5146100a0578063329c833e146100bc57806366e2ca54146100da5780636f77926b146100f8578063715018a614610128575b5f80fd5b6100ba60048036038101906100b59190610d03565b6101c2565b005b6100c46102e4565b6040516100d19190610dcb565b60405180910390f35b6100e261037c565b6040516100ef9190610f27565b60405180910390f35b610112600480360381019061010d9190610f47565b6105f0565b60405161011f919061102f565b60405180910390f35b610130610886565b005b61014c600480360381019061014791906110a3565b610899565b005b610156610909565b60405161016391906110f0565b60405180910390f35b610174610930565b6040516101819190610dcb565b60405180910390f35b6101a4600480360381019061019f9190611235565b6109c0565b005b6101c060048036038101906101bb9190610f47565b610a56565b005b6101ca610ad8565b5f60055f60015481526020019081526020015f20905082815f015f6101000a81548173ffffffffffffffffffffffffffffffffffffffff021916908373ffffffffffffffffffffffffffffffffffffffff16021790555081816001015f6101000a81548173ffffffffffffffffffffffffffffffffffffffff021916908373ffffffffffffffffffffffffffffffffffffffff16021790555060015481600201819055505f816003015f6101000a81548160ff0219169083151502179055507f2f2749659293fec3fabe942176686b796ac8c11c8d352c76a730c56978f6c29483836001545f6040516102c09493929190611327565b60405180910390a160015f8154809291906102da90611397565b9190505550505050565b60606102ee610ad8565b600380546102fb9061140b565b80601f01602080910402602001604051908101604052809291908181526020018280546103279061140b565b80156103725780601f1061034957610100808354040283529160200191610372565b820191905f5260205f20905b81548152906001019060200180831161035557829003601f168201915b5050505050905090565b60605f60015467ffffffffffffffff81111561039b5761039a611111565b5b6040519080825280602002602001820160405280156103d457816020015b6103c1610c1e565b8152602001906001900390816103b95790505b5090505f805b600154811015610538575f151560055f8381526020019081526020015f206003015f9054906101000a900460ff161515036105255760055f8281526020019081526020015f206040518060800160405290815f82015f9054906101000a900473ffffffffffffffffffffffffffffffffffffffff1673ffffffffffffffffffffffffffffffffffffffff1673ffffffffffffffffffffffffffffffffffffffff168152602001600182015f9054906101000a900473ffffffffffffffffffffffffffffffffffffffff1673ffffffffffffffffffffffffffffffffffffffff1673ffffffffffffffffffffffffffffffffffffffff16815260200160028201548152602001600382015f9054906101000a900460ff16151515158152505083838151811061050b5761050a61143b565b5b6020026020010181905250818061052190611397565b9250505b808061053090611397565b9150506103da565b505f8167ffffffffffffffff81111561055457610553611111565b5b60405190808252806020026020018201604052801561058d57816020015b61057a610c1e565b8152602001906001900390816105725790505b5090505f5b828110156105e6578381815181106105ad576105ac61143b565b5b60200260200101518282815181106105c8576105c761143b565b5b602002602001018190525080806105de90611397565b915050610592565b5080935050505090565b6105f8610c70565b60045f8373ffffffffffffffffffffffffffffffffffffffff1673ffffffffffffffffffffffffffffffffffffffff1681526020019081526020015f206040518060800160405290815f8201805461064f9061140b565b80601f016020809104026020016040519081016040528092919081815260200182805461067b9061140b565b80156106c65780601f1061069d576101008083540402835291602001916106c6565b820191905f5260205f20905b8154815290600101906020018083116106a957829003601f168201915b505050505081526020016001820180546106df9061140b565b80601f016020809104026020016040519081016040528092919081815260200182805461070b9061140b565b80156107565780601f1061072d57610100808354040283529160200191610756565b820191905f5260205f20905b81548152906001019060200180831161073957829003601f168201915b5050505050815260200160028201805461076f9061140b565b80601f016020809104026020016040519081016040528092919081815260200182805461079b9061140b565b80156107e65780601f106107bd576101008083540402835291602001916107e6565b820191905f5260205f20905b8154815290600101906020018083116107c957829003601f168201915b505050505081526020016003820180546107ff9061140b565b80601f016020809104026020016040519081016040528092919081815260200182805461082b9061140b565b80156108765780601f1061084d57610100808354040283529160200191610876565b820191905f5260205f20905b81548152906001019060200180831161085957829003601f168201915b5050505050815250509050919050565b61088e610ad8565b6108975f610b56565b565b6108a1610ad8565b8060055f8481526020019081526020015f206003015f6101000a81548160ff0219169083151502179055507f51b13a92158a0d672532219ae9456c1ffaa81c5b8fcc9503865e4f40622ae34b82826040516108fd929190611468565b60405180910390a15050565b5f805f9054906101000a900473ffffffffffffffffffffffffffffffffffffffff16905090565b60606002805461093f9061140b565b80601f016020809104026020016040519081016040528092919081815260200182805461096b9061140b565b80156109b65780601f1061098d576101008083540402835291602001916109b6565b820191905f5260205f20905b81548152906001019060200180831161099957829003601f168201915b5050505050905090565b6109c8610ad8565b5f60045f3373ffffffffffffffffffffffffffffffffffffffff1673ffffffffffffffffffffffffffffffffffffffff1681526020019081526020015f20905084815f019081610a18919061162c565b5083816001019081610a2a919061162c565b5082816002019081610a3c919061162c565b5081816003019081610a4e919061162c565b505050505050565b610a5e610ad8565b5f73ffffffffffffffffffffffffffffffffffffffff168173ffffffffffffffffffffffffffffffffffffffff1603610acc576040517f08c379a0000000000000000000000000000000000000000000000000000000008152600401610ac39061176b565b60405180910390fd5b610ad581610b56565b50565b610ae0610c17565b73ffffffffffffffffffffffffffffffffffffffff16610afe610909565b73ffffffffffffffffffffffffffffffffffffffff1614610b54576040517f08c379a0000000000000000000000000000000000000000000000000000000008152600401610b4b906117d3565b60405180910390fd5b565b5f805f9054906101000a900473ffffffffffffffffffffffffffffffffffffffff169050815f806101000a81548173ffffffffffffffffffffffffffffffffffffffff021916908373ffffffffffffffffffffffffffffffffffffffff1602179055508173ffffffffffffffffffffffffffffffffffffffff168173ffffffffffffffffffffffffffffffffffffffff167f8be0079c531659141344cd1fd0a4f28419497f9722a3daafe3b4186f6b6457e060405160405180910390a35050565b5f33905090565b60405180608001604052805f73ffffffffffffffffffffffffffffffffffffffff1681526020015f73ffffffffffffffffffffffffffffffffffffffff1681526020015f81526020015f151581525090565b6040518060800160405280606081526020016060815260200160608152602001606081525090565b5f604051905090565b5f80fd5b5f80fd5b5f73ffffffffffffffffffffffffffffffffffffffff82169050919050565b5f610cd282610ca9565b9050919050565b610ce281610cc8565b8114610cec575f80fd5b50565b5f81359050610cfd81610cd9565b92915050565b5f8060408385031215610d1957610d18610ca1565b5b5f610d2685828601610cef565b9250506020610d3785828601610cef565b9150509250929050565b5f81519050919050565b5f82825260208201905092915050565b5f5b83811015610d78578082015181840152602081019050610d5d565b5f8484015250505050565b5f601f19601f8301169050919050565b5f610d9d82610d41565b610da78185610d4b565b9350610db7818560208601610d5b565b610dc081610d83565b840191505092915050565b5f6020820190508181035f830152610de38184610d93565b905092915050565b5f81519050919050565b5f82825260208201905092915050565b5f819050602082019050919050565b610e1d81610cc8565b82525050565b5f819050919050565b610e3581610e23565b82525050565b5f8115159050919050565b610e4f81610e3b565b82525050565b608082015f820151610e695f850182610e14565b506020820151610e7c6020850182610e14565b506040820151610e8f6040850182610e2c565b506060820151610ea26060850182610e46565b50505050565b5f610eb38383610e55565b60808301905092915050565b5f602082019050919050565b5f610ed582610deb565b610edf8185610df5565b9350610eea83610e05565b805f5b83811015610f1a578151610f018882610ea8565b9750610f0c83610ebf565b925050600181019050610eed565b5085935050505092915050565b5f6020820190508181035f830152610f3f8184610ecb565b905092915050565b5f60208284031215610f5c57610f5b610ca1565b5b5f610f6984828501610cef565b91505092915050565b5f82825260208201905092915050565b5f610f8c82610d41565b610f968185610f72565b9350610fa6818560208601610d5b565b610faf81610d83565b840191505092915050565b5f608083015f8301518482035f860152610fd48282610f82565b91505060208301518482036020860152610fee8282610f82565b915050604083015184820360408601526110088282610f82565b915050606083015184820360608601526110228282610f82565b9150508091505092915050565b5f6020820190508181035f8301526110478184610fba565b905092915050565b61105881610e23565b8114611062575f80fd5b50565b5f813590506110738161104f565b92915050565b61108281610e3b565b811461108c575f80fd5b50565b5f8135905061109d81611079565b92915050565b5f80604083850312156110b9576110b8610ca1565b5b5f6110c685828601611065565b92505060206110d78582860161108f565b9150509250929050565b6110ea81610cc8565b82525050565b5f6020820190506111035f8301846110e1565b92915050565b5f80fd5b5f80fd5b7f4e487b71000000000000000000000000000000000000000000000000000000005f52604160045260245ffd5b61114782610d83565b810181811067ffffffffffffffff8211171561116657611165611111565b5b80604052505050565b5f611178610c98565b9050611184828261113e565b919050565b5f67ffffffffffffffff8211156111a3576111a2611111565b5b6111ac82610d83565b9050602081019050919050565b828183375f83830152505050565b5f6111d96111d484611189565b61116f565b9050828152602081018484840111156111f5576111f461110d565b5b6112008482856111b9565b509392505050565b5f82601f83011261121c5761121b611109565b5b813561122c8482602086016111c7565b91505092915050565b5f805f806080858703121561124d5761124c610ca1565b5b5f85013567ffffffffffffffff81111561126a57611269610ca5565b5b61127687828801611208565b945050602085013567ffffffffffffffff81111561129757611296610ca5565b5b6112a387828801611208565b935050604085013567ffffffffffffffff8111156112c4576112c3610ca5565b5b6112d087828801611208565b925050606085013567ffffffffffffffff8111156112f1576112f0610ca5565b5b6112fd87828801611208565b91505092959194509250565b61131281610e23565b82525050565b61132181610e3b565b82525050565b5f60808201905061133a5f8301876110e1565b61134760208301866110e1565b6113546040830185611309565b6113616060830184611318565b95945050505050565b7f4e487b71000000000000000000000000000000000000000000000000000000005f52601160045260245ffd5b5f6113a182610e23565b91507fffffffffffffffffffffffffffffffffffffffffffffffffffffffffffffffff82036113d3576113d261136a565b5b600182019050919050565b7f4e487b71000000000000000000000000000000000000000000000000000000005f52602260045260245ffd5b5f600282049050600182168061142257607f821691505b602082108103611435576114346113de565b5b50919050565b7f4e487b71000000000000000000000000000000000000000000000000000000005f52603260045260245ffd5b5f60408201905061147b5f830185611309565b6114886020830184611318565b9392505050565b5f819050815f5260205f209050919050565b5f6020601f8301049050919050565b5f82821b905092915050565b5f600883026114eb7fffffffffffffffffffffffffffffffffffffffffffffffffffffffffffffffff826114b0565b6114f586836114b0565b95508019841693508086168417925050509392505050565b5f819050919050565b5f61153061152b61152684610e23565b61150d565b610e23565b9050919050565b5f819050919050565b61154983611516565b61155d61155582611537565b8484546114bc565b825550505050565b5f90565b611571611565565b61157c818484611540565b505050565b5b8181101561159f576115945f82611569565b600181019050611582565b5050565b601f8211156115e4576115b58161148f565b6115be846114a1565b810160208510156115cd578190505b6115e16115d9856114a1565b830182611581565b50505b505050565b5f82821c905092915050565b5f6116045f19846008026115e9565b1980831691505092915050565b5f61161c83836115f5565b9150826002028217905092915050565b61163582610d41565b67ffffffffffffffff81111561164e5761164d611111565b5b611658825461140b565b6116638282856115a3565b5f60209050601f831160018114611694575f8415611682578287015190505b61168c8582611611565b8655506116f3565b601f1984166116a28661148f565b5f5b828110156116c9578489015182556001820191506020850194506020810190506116a4565b868310156116e657848901516116e2601f8916826115f5565b8355505b6001600288020188555050505b505050505050565b7f4f776e61626c653a206e6577206f776e657220697320746865207a65726f20615f8201527f6464726573730000000000000000000000000000000000000000000000000000602082015250565b5f611755602683610d4b565b9150611760826116fb565b604082019050919050565b5f6020820190508181035f83015261178281611749565b9050919050565b7f4f776e61626c653a2063616c6c6572206973206e6f7420746865206f776e65725f82015250565b5f6117bd602083610d4b565b91506117c882611789565b602082019050919050565b5f6020820190508181035f8301526117ea816117b1565b905091905056fea2646970667358221220c88a2b3e039ec7c81297c168b5d8f03d76bc9eeeb46cb1d70ce9b38ced75234d64736f6c63430008140033",
  "linkReferences": {},
  "deployedLinkReferences": {}
}